{
  "contractName": "SeatContract",
  "abi": [
    {
      "inputs": [],
      "stateMutability": "nonpayable",
      "type": "constructor"
    },
    {
      "anonymous": false,
      "inputs": [
        {
          "indexed": false,
          "internalType": "uint256",
          "name": "id",
          "type": "uint256"
        },
        {
          "indexed": false,
          "internalType": "string",
          "name": "row",
          "type": "string"
        },
        {
          "indexed": false,
          "internalType": "string",
          "name": "column",
          "type": "string"
        },
        {
          "indexed": false,
          "internalType": "bool",
          "name": "inUse",
          "type": "bool"
        }
      ],
      "name": "SeatCreated",
      "type": "event"
    },
    {
      "inputs": [
        {
          "internalType": "uint256",
          "name": "",
          "type": "uint256"
        }
      ],
      "name": "seats",
      "outputs": [
        {
          "internalType": "uint256",
          "name": "id",
          "type": "uint256"
        },
        {
          "internalType": "string",
          "name": "row",
          "type": "string"
        },
        {
          "internalType": "string",
          "name": "column",
          "type": "string"
        },
        {
          "internalType": "bool",
          "name": "inUse",
          "type": "bool"
        }
      ],
      "stateMutability": "view",
      "type": "function",
      "constant": true
    },
    {
      "inputs": [
        {
          "internalType": "uint256",
          "name": "_id",
          "type": "uint256"
        }
      ],
      "name": "toggleInUse",
      "outputs": [],
      "stateMutability": "nonpayable",
      "type": "function"
    },
    {
      "inputs": [
        {
          "internalType": "uint256",
          "name": "_position",
          "type": "uint256"
        }
      ],
      "name": "getSeat",
      "outputs": [
        {
          "components": [
            {
              "internalType": "uint256",
              "name": "id",
              "type": "uint256"
            },
            {
              "internalType": "string",
              "name": "row",
              "type": "string"
            },
            {
              "internalType": "string",
              "name": "column",
              "type": "string"
            },
            {
              "internalType": "bool",
              "name": "inUse",
              "type": "bool"
            }
          ],
          "internalType": "struct SeatContract.Seat",
          "name": "",
          "type": "tuple"
        }
      ],
      "stateMutability": "view",
      "type": "function",
      "constant": true
    }
  ],
  "bytecode": "0x6080604052600080553480156200001557600080fd5b50620000926040518060400160405280600181526020017f31000000000000000000000000000000000000000000000000000000000000008152506040518060400160405280600181526020017f410000000000000000000000000000000000000000000000000000000000000081525062000bbc60201b60201c565b6200010e6040518060400160405280600181526020017f31000000000000000000000000000000000000000000000000000000000000008152506040518060400160405280600181526020017f420000000000000000000000000000000000000000000000000000000000000081525062000bbc60201b60201c565b6200018a6040518060400160405280600181526020017f31000000000000000000000000000000000000000000000000000000000000008152506040518060400160405280600181526020017f430000000000000000000000000000000000000000000000000000000000000081525062000bbc60201b60201c565b620002066040518060400160405280600181526020017f31000000000000000000000000000000000000000000000000000000000000008152506040518060400160405280600181526020017f440000000000000000000000000000000000000000000000000000000000000081525062000bbc60201b60201c565b620002826040518060400160405280600181526020017f31000000000000000000000000000000000000000000000000000000000000008152506040518060400160405280600181526020017f450000000000000000000000000000000000000000000000000000000000000081525062000bbc60201b60201c565b620002fe6040518060400160405280600181526020017f31000000000000000000000000000000000000000000000000000000000000008152506040518060400160405280600181526020017f460000000000000000000000000000000000000000000000000000000000000081525062000bbc60201b60201c565b6200037a6040518060400160405280600181526020017f31000000000000000000000000000000000000000000000000000000000000008152506040518060400160405280600181526020017f470000000000000000000000000000000000000000000000000000000000000081525062000bbc60201b60201c565b620003f66040518060400160405280600181526020017f31000000000000000000000000000000000000000000000000000000000000008152506040518060400160405280600181526020017f480000000000000000000000000000000000000000000000000000000000000081525062000bbc60201b60201c565b620004726040518060400160405280600181526020017f31000000000000000000000000000000000000000000000000000000000000008152506040518060400160405280600181526020017f490000000000000000000000000000000000000000000000000000000000000081525062000bbc60201b60201c565b620004ee6040518060400160405280600181526020017f31000000000000000000000000000000000000000000000000000000000000008152506040518060400160405280600181526020017f4a0000000000000000000000000000000000000000000000000000000000000081525062000bbc60201b60201c565b6200056a6040518060400160405280600181526020017f31000000000000000000000000000000000000000000000000000000000000008152506040518060400160405280600181526020017f4b0000000000000000000000000000000000000000000000000000000000000081525062000bbc60201b60201c565b620005e66040518060400160405280600181526020017f31000000000000000000000000000000000000000000000000000000000000008152506040518060400160405280600181526020017f4c0000000000000000000000000000000000000000000000000000000000000081525062000bbc60201b60201c565b620006626040518060400160405280600181526020017f32000000000000000000000000000000000000000000000000000000000000008152506040518060400160405280600181526020017f410000000000000000000000000000000000000000000000000000000000000081525062000bbc60201b60201c565b620006de6040518060400160405280600181526020017f32000000000000000000000000000000000000000000000000000000000000008152506040518060400160405280600181526020017f420000000000000000000000000000000000000000000000000000000000000081525062000bbc60201b60201c565b6200075a6040518060400160405280600181526020017f32000000000000000000000000000000000000000000000000000000000000008152506040518060400160405280600181526020017f430000000000000000000000000000000000000000000000000000000000000081525062000bbc60201b60201c565b620007d66040518060400160405280600181526020017f32000000000000000000000000000000000000000000000000000000000000008152506040518060400160405280600181526020017f440000000000000000000000000000000000000000000000000000000000000081525062000bbc60201b60201c565b620008526040518060400160405280600181526020017f32000000000000000000000000000000000000000000000000000000000000008152506040518060400160405280600181526020017f450000000000000000000000000000000000000000000000000000000000000081525062000bbc60201b60201c565b620008ce6040518060400160405280600181526020017f32000000000000000000000000000000000000000000000000000000000000008152506040518060400160405280600181526020017f460000000000000000000000000000000000000000000000000000000000000081525062000bbc60201b60201c565b6200094a6040518060400160405280600181526020017f32000000000000000000000000000000000000000000000000000000000000008152506040518060400160405280600181526020017f470000000000000000000000000000000000000000000000000000000000000081525062000bbc60201b60201c565b620009c66040518060400160405280600181526020017f32000000000000000000000000000000000000000000000000000000000000008152506040518060400160405280600181526020017f480000000000000000000000000000000000000000000000000000000000000081525062000bbc60201b60201c565b62000a426040518060400160405280600181526020017f32000000000000000000000000000000000000000000000000000000000000008152506040518060400160405280600181526020017f490000000000000000000000000000000000000000000000000000000000000081525062000bbc60201b60201c565b62000abe6040518060400160405280600181526020017f32000000000000000000000000000000000000000000000000000000000000008152506040518060400160405280600181526020017f4a0000000000000000000000000000000000000000000000000000000000000081525062000bbc60201b60201c565b62000b3a6040518060400160405280600181526020017f32000000000000000000000000000000000000000000000000000000000000008152506040518060400160405280600181526020017f4b0000000000000000000000000000000000000000000000000000000000000081525062000bbc60201b60201c565b62000bb66040518060400160405280600181526020017f32000000000000000000000000000000000000000000000000000000000000008152506040518060400160405280600181526020017f4c0000000000000000000000000000000000000000000000000000000000000081525062000bbc60201b60201c565b62000f89565b6040518060800160405280600054815260200183815260200182815260200160001515815250600160008054815260200190815260200160002060008201518160000155602082015181600101908051906020019062000c1e92919062000cc0565b50604082015181600201908051906020019062000c3d92919062000cc0565b5060608201518160030160006101000a81548160ff02191690831515021790555090505060008081548092919062000c759062000ecc565b91905055507f0e528dab4abb51b203131f4c4160fb6a9a7abde0d8b399095df7814e6d83d2206000548383600160405162000cb4949392919062000dd3565b60405180910390a15050565b82805462000cce9062000e96565b90600052602060002090601f01602090048101928262000cf2576000855562000d3e565b82601f1062000d0d57805160ff191683800117855562000d3e565b8280016001018555821562000d3e579182015b8281111562000d3d57825182559160200191906001019062000d20565b5b50905062000d4d919062000d51565b5090565b5b8082111562000d6c57600081600090555060010162000d52565b5090565b62000d7b8162000e4a565b82525050565b600062000d8e8262000e2e565b62000d9a818562000e39565b935062000dac81856020860162000e60565b62000db78162000f78565b840191505092915050565b62000dcd8162000e56565b82525050565b600060808201905062000dea600083018762000dc2565b818103602083015262000dfe818662000d81565b9050818103604083015262000e14818562000d81565b905062000e25606083018462000d70565b95945050505050565b600081519050919050565b600082825260208201905092915050565b60008115159050919050565b6000819050919050565b60005b8381101562000e8057808201518184015260208101905062000e63565b8381111562000e90576000848401525b50505050565b6000600282049050600182168062000eaf57607f821691505b6020821081141562000ec65762000ec562000f49565b5b50919050565b600062000ed98262000e56565b91507fffffffffffffffffffffffffffffffffffffffffffffffffffffffffffffffff82141562000f0f5762000f0e62000f1a565b5b600182019050919050565b7f4e487b7100000000000000000000000000000000000000000000000000000000600052601160045260246000fd5b7f4e487b7100000000000000000000000000000000000000000000000000000000600052602260045260246000fd5b6000601f19601f8301169050919050565b61095d8062000f996000396000f3fe608060405234801561001057600080fd5b50600436106100415760003560e01c806301b1eaba1461004657806317b58e8c146100625780633b33c70214610092575b600080fd5b610060600480360381019061005b9190610669565b6100c5565b005b61007c60048036038101906100779190610669565b6102c4565b60405161008991906107ae565b60405180910390f35b6100ac60048036038101906100a79190610669565b61043a565b6040516100bc94939291906107d0565b60405180910390f35b600060016000838152602001908152602001600020604051806080016040529081600082015481526020016001820180546100ff90610899565b80601f016020809104026020016040519081016040528092919081815260200182805461012b90610899565b80156101785780601f1061014d57610100808354040283529160200191610178565b820191906000526020600020905b81548152906001019060200180831161015b57829003601f168201915b5050505050815260200160028201805461019190610899565b80601f01602080910402602001604051908101604052809291908181526020018280546101bd90610899565b801561020a5780601f106101df5761010080835404028352916020019161020a565b820191906000526020600020905b8154815290600101906020018083116101ed57829003601f168201915b505050505081526020016003820160009054906101000a900460ff1615151515815250509050806060015115816060019015159081151581525050806001600084815260200190815260200160002060008201518160000155602082015181600101908051906020019061027f929190610587565b50604082015181600201908051906020019061029c929190610587565b5060608201518160030160006101000a81548160ff0219169083151502179055509050505050565b6102cc61060d565b600160008381526020019081526020016000206040518060800160405290816000820154815260200160018201805461030490610899565b80601f016020809104026020016040519081016040528092919081815260200182805461033090610899565b801561037d5780601f106103525761010080835404028352916020019161037d565b820191906000526020600020905b81548152906001019060200180831161036057829003601f168201915b5050505050815260200160028201805461039690610899565b80601f01602080910402602001604051908101604052809291908181526020018280546103c290610899565b801561040f5780601f106103e45761010080835404028352916020019161040f565b820191906000526020600020905b8154815290600101906020018083116103f257829003601f168201915b505050505081526020016003820160009054906101000a900460ff1615151515815250509050919050565b600160205280600052604060002060009150905080600001549080600101805461046390610899565b80601f016020809104026020016040519081016040528092919081815260200182805461048f90610899565b80156104dc5780601f106104b1576101008083540402835291602001916104dc565b820191906000526020600020905b8154815290600101906020018083116104bf57829003601f168201915b5050505050908060020180546104f190610899565b80601f016020809104026020016040519081016040528092919081815260200182805461051d90610899565b801561056a5780601f1061053f5761010080835404028352916020019161056a565b820191906000526020600020905b81548152906001019060200180831161054d57829003601f168201915b5050505050908060030160009054906101000a900460ff16905084565b82805461059390610899565b90600052602060002090601f0160209004810192826105b557600085556105fc565b82601f106105ce57805160ff19168380011785556105fc565b828001600101855582156105fc579182015b828111156105fb5782518255916020019190600101906105e0565b5b5090506106099190610637565b5090565b60405180608001604052806000815260200160608152602001606081526020016000151581525090565b5b80821115610650576000816000905550600101610638565b5090565b60008135905061066381610910565b92915050565b60006020828403121561067f5761067e6108fa565b5b600061068d84828501610654565b91505092915050565b61069f81610850565b82525050565b6106ae81610850565b82525050565b60006106bf82610823565b6106c9818561082e565b93506106d9818560208601610866565b6106e2816108ff565b840191505092915050565b60006106f882610823565b610702818561083f565b9350610712818560208601610866565b61071b816108ff565b840191505092915050565b600060808301600083015161073e6000860182610790565b506020830151848203602086015261075682826106b4565b9150506040830151848203604086015261077082826106b4565b91505060608301516107856060860182610696565b508091505092915050565b6107998161085c565b82525050565b6107a88161085c565b82525050565b600060208201905081810360008301526107c88184610726565b905092915050565b60006080820190506107e5600083018761079f565b81810360208301526107f781866106ed565b9050818103604083015261080b81856106ed565b905061081a60608301846106a5565b95945050505050565b600081519050919050565b600082825260208201905092915050565b600082825260208201905092915050565b60008115159050919050565b6000819050919050565b60005b83811015610884578082015181840152602081019050610869565b83811115610893576000848401525b50505050565b600060028204905060018216806108b157607f821691505b602082108114156108c5576108c46108cb565b5b50919050565b7f4e487b7100000000000000000000000000000000000000000000000000000000600052602260045260246000fd5b600080fd5b6000601f19601f8301169050919050565b6109198161085c565b811461092457600080fd5b5056fea264697066735822122017228e5c7a7150d8d73c3a8390658a56ae77a30b8d1cd99bc8dcbc4ef47a447764736f6c63430008060033",
  "immutableReferences": {},
  "source": "pragma solidity ^0.8.6;\r\n\r\ncontract SeatContract {\r\n\r\n  uint seatCounter = 0;\r\n\r\n  event SeatCreated (\r\n    uint id,\r\n    string row,\r\n    string column,\r\n    bool inUse\r\n  );\r\n\r\n  struct Seat {\r\n    uint id;\r\n    string row;\r\n    string column;\r\n    bool inUse;\r\n  }\r\n\r\n  constructor () {\r\n    createSeat(\"1\", \"A\");\r\n    createSeat(\"1\", \"B\");\r\n    createSeat(\"1\", \"C\");\r\n    createSeat(\"1\", \"D\");\r\n    createSeat(\"1\", \"E\");\r\n    createSeat(\"1\", \"F\");\r\n    createSeat(\"1\", \"G\");\r\n    createSeat(\"1\", \"H\");\r\n    createSeat(\"1\", \"I\");\r\n    createSeat(\"1\", \"J\");\r\n    createSeat(\"1\", \"K\");\r\n    createSeat(\"1\", \"L\");\r\n    \r\n    createSeat(\"2\", \"A\");\r\n    createSeat(\"2\", \"B\");\r\n    createSeat(\"2\", \"C\");\r\n    createSeat(\"2\", \"D\");\r\n    createSeat(\"2\", \"E\");\r\n    createSeat(\"2\", \"F\");\r\n    createSeat(\"2\", \"G\");\r\n    createSeat(\"2\", \"H\");\r\n    createSeat(\"2\", \"I\");\r\n    createSeat(\"2\", \"J\");\r\n    createSeat(\"2\", \"K\");\r\n    createSeat(\"2\", \"L\");\r\n    \r\n    // createSeat(\"3\", \"A\");\r\n    // createSeat(\"3\", \"B\");\r\n    // createSeat(\"3\", \"C\");\r\n    // createSeat(\"3\", \"D\");\r\n    // createSeat(\"3\", \"E\");\r\n    // createSeat(\"3\", \"F\");\r\n    // createSeat(\"3\", \"G\");\r\n    // createSeat(\"3\", \"H\");\r\n    // createSeat(\"3\", \"I\");\r\n    // createSeat(\"3\", \"J\");\r\n    // createSeat(\"3\", \"K\");\r\n    // createSeat(\"3\", \"L\");\r\n    \r\n    // createSeat(\"4\", \"A\");\r\n    // createSeat(\"4\", \"B\");\r\n    // createSeat(\"4\", \"C\");\r\n    // createSeat(\"4\", \"D\");\r\n    // createSeat(\"4\", \"E\");\r\n    // createSeat(\"4\", \"F\");\r\n    // createSeat(\"4\", \"G\");\r\n    // createSeat(\"4\", \"H\");\r\n    // createSeat(\"4\", \"I\");\r\n    // createSeat(\"4\", \"J\");\r\n    // createSeat(\"4\", \"K\");\r\n    // createSeat(\"4\", \"L\");\r\n    \r\n    // createSeat(\"5\", \"A\");\r\n    // createSeat(\"5\", \"B\");\r\n    // createSeat(\"5\", \"C\");\r\n    // createSeat(\"5\", \"D\");\r\n    // createSeat(\"5\", \"E\");\r\n    // createSeat(\"5\", \"F\");\r\n    // createSeat(\"5\", \"G\");\r\n    // createSeat(\"5\", \"H\");\r\n    // createSeat(\"5\", \"I\");\r\n    // createSeat(\"5\", \"J\");\r\n    // createSeat(\"5\", \"K\");\r\n    // createSeat(\"5\", \"L\");\r\n    \r\n    // createSeat(\"6\", \"A\");\r\n    // createSeat(\"6\", \"B\");\r\n    // createSeat(\"6\", \"C\");\r\n    // createSeat(\"6\", \"D\");\r\n    // createSeat(\"6\", \"E\");\r\n    // createSeat(\"6\", \"F\");\r\n    // createSeat(\"6\", \"G\");\r\n    // createSeat(\"6\", \"H\");\r\n    // createSeat(\"6\", \"I\");\r\n    // createSeat(\"6\", \"J\");\r\n    // createSeat(\"6\", \"K\");\r\n    // createSeat(\"6\", \"L\");\r\n  }\r\n\r\n  mapping (uint => Seat) public seats;\r\n\r\n  function createSeat (string memory _row, string memory _column) private {\r\n    seats[seatCounter] = Seat(seatCounter, _row, _column, false);\r\n    seatCounter++;\r\n    emit SeatCreated(seatCounter, _row, _column, true);\r\n  }\r\n\r\n  function toggleInUse (uint _id) public {\r\n    Seat memory _seat = seats[_id];\r\n    _seat.inUse = !_seat.inUse;\r\n    seats[_id] = _seat;\r\n  }\r\n\r\n  function getSeat (uint _position) public view returns (Seat memory) {\r\n    return seats[_position];\r\n  }\r\n\r\n}",
  "sourcePath": "D:\\Personal\\Clean Briefcase\\5. TicketContract\\contracts\\SeatContract.sol",
  "compiler": {
    "name": "solc",
    "version": "0.8.6+commit.11564f7e.Emscripten.clang"
  },
  "schemaVersion": "3.4.11",
  "updatedAt": "2022-12-04T15:35:14.059Z",
  "networkType": "ethereum",
  "devdoc": {
    "kind": "dev",
    "methods": {},
    "version": 1
  },
  "userdoc": {
    "kind": "user",
    "methods": {},
    "version": 1
  }
}