{
  "contractName": "SeatContract",
  "abi": [
    {
      "inputs": [],
      "stateMutability": "nonpayable",
      "type": "constructor"
    },
    {
      "inputs": [
        {
          "internalType": "uint256",
          "name": "",
          "type": "uint256"
        }
      ],
      "name": "seats",
      "outputs": [
        {
          "internalType": "string",
          "name": "id",
          "type": "string"
        },
        {
          "internalType": "string",
          "name": "row",
          "type": "string"
        },
        {
          "internalType": "string",
          "name": "column",
          "type": "string"
        },
        {
          "internalType": "string",
          "name": "idTicket",
          "type": "string"
        }
      ],
      "stateMutability": "view",
      "type": "function",
      "constant": true
    },
    {
      "inputs": [
        {
          "internalType": "uint256",
          "name": "",
          "type": "uint256"
        }
      ],
      "name": "users",
      "outputs": [
        {
          "internalType": "string",
          "name": "id",
          "type": "string"
        },
        {
          "internalType": "string",
          "name": "name",
          "type": "string"
        },
        {
          "internalType": "string",
          "name": "email",
          "type": "string"
        },
        {
          "internalType": "string",
          "name": "password",
          "type": "string"
        }
      ],
      "stateMutability": "view",
      "type": "function",
      "constant": true
    },
    {
      "inputs": [
        {
          "internalType": "string",
          "name": "_id",
          "type": "string"
        },
        {
          "internalType": "string",
          "name": "_name",
          "type": "string"
        },
        {
          "internalType": "string",
          "name": "_email",
          "type": "string"
        },
        {
          "internalType": "string",
          "name": "_password",
          "type": "string"
        }
      ],
      "name": "createUser",
      "outputs": [],
      "stateMutability": "nonpayable",
      "type": "function"
    },
    {
      "inputs": [
        {
          "internalType": "string",
          "name": "_id",
          "type": "string"
        },
        {
          "internalType": "string",
          "name": "_row",
          "type": "string"
        },
        {
          "internalType": "string",
          "name": "_column",
          "type": "string"
        }
      ],
      "name": "createSeat",
      "outputs": [],
      "stateMutability": "nonpayable",
      "type": "function"
    },
    {
      "inputs": [
        {
          "internalType": "string",
          "name": "_email",
          "type": "string"
        },
        {
          "internalType": "string",
          "name": "_password",
          "type": "string"
        }
      ],
      "name": "signIn",
      "outputs": [
        {
          "components": [
            {
              "internalType": "string",
              "name": "id",
              "type": "string"
            },
            {
              "internalType": "string",
              "name": "name",
              "type": "string"
            },
            {
              "internalType": "string",
              "name": "email",
              "type": "string"
            },
            {
              "internalType": "string",
              "name": "password",
              "type": "string"
            }
          ],
          "internalType": "struct SeatContract.User",
          "name": "",
          "type": "tuple"
        }
      ],
      "stateMutability": "view",
      "type": "function",
      "constant": true
    },
    {
      "inputs": [
        {
          "internalType": "uint256",
          "name": "_position",
          "type": "uint256"
        }
      ],
      "name": "getSeat",
      "outputs": [
        {
          "components": [
            {
              "internalType": "string",
              "name": "id",
              "type": "string"
            },
            {
              "internalType": "string",
              "name": "row",
              "type": "string"
            },
            {
              "internalType": "string",
              "name": "column",
              "type": "string"
            },
            {
              "internalType": "string",
              "name": "idTicket",
              "type": "string"
            }
          ],
          "internalType": "struct SeatContract.Seat",
          "name": "",
          "type": "tuple"
        }
      ],
      "stateMutability": "view",
      "type": "function",
      "constant": true
    }
  ],
  "bytecode": "0x60806040526000805560006001553480156200001a57600080fd5b506200002b6200004160201b60201c565b6200003b620002fb60201b60201c565b620016ff565b620001296040518060400160405280600881526020017f30316135633765320000000000000000000000000000000000000000000000008152506040518060400160405280600d81526020017f416e647265204c697a6172616e000000000000000000000000000000000000008152506040518060400160405280601681526020017f616e6472656c697a6172616e40676d61696c2e636f6d000000000000000000008152506040518060400160405280600d81526020017f48656c6c6f576f726c6431323300000000000000000000000000000000000000815250620013ad60201b60201c565b620002116040518060400160405280600881526020017f36333237343632360000000000000000000000000000000000000000000000008152506040518060400160405280600e81526020017f59656c69747a61204d6167616c690000000000000000000000000000000000008152506040518060400160405280601681526020017f79656c69747a616d6167616c6940676d61692e636f6d000000000000000000008152506040518060400160405280600d81526020017f48656c6c6f576f726c6431323300000000000000000000000000000000000000815250620013ad60201b60201c565b620002f96040518060400160405280600881526020017f65633037336630310000000000000000000000000000000000000000000000008152506040518060400160405280600c81526020017f4d6172636f20436f7274657300000000000000000000000000000000000000008152506040518060400160405280601481526020017f6d6172636f636f7274657340676d61692e636f6d0000000000000000000000008152506040518060400160405280600d81526020017f48656c6c6f576f726c6431323300000000000000000000000000000000000000815250620013ad60201b60201c565b565b620003ad6040518060400160405280600881526020017f30656530666633360000000000000000000000000000000000000000000000008152506040518060400160405280600181526020017f31000000000000000000000000000000000000000000000000000000000000008152506040518060400160405280600181526020017f41000000000000000000000000000000000000000000000000000000000000008152506200148260201b60201c565b6200045f6040518060400160405280600881526020017f33613033663937660000000000000000000000000000000000000000000000008152506040518060400160405280600181526020017f31000000000000000000000000000000000000000000000000000000000000008152506040518060400160405280600181526020017f42000000000000000000000000000000000000000000000000000000000000008152506200148260201b60201c565b620005116040518060400160405280600881526020017f33373635343437610000000000000000000000000000000000000000000000008152506040518060400160405280600181526020017f31000000000000000000000000000000000000000000000000000000000000008152506040518060400160405280600181526020017f43000000000000000000000000000000000000000000000000000000000000008152506200148260201b60201c565b620005c36040518060400160405280600881526020017f64323435366566370000000000000000000000000000000000000000000000008152506040518060400160405280600181526020017f31000000000000000000000000000000000000000000000000000000000000008152506040518060400160405280600181526020017f44000000000000000000000000000000000000000000000000000000000000008152506200148260201b60201c565b620006756040518060400160405280600881526020017f36643136323832650000000000000000000000000000000000000000000000008152506040518060400160405280600181526020017f31000000000000000000000000000000000000000000000000000000000000008152506040518060400160405280600181526020017f45000000000000000000000000000000000000000000000000000000000000008152506200148260201b60201c565b620007276040518060400160405280600881526020017f32353232333433330000000000000000000000000000000000000000000000008152506040518060400160405280600181526020017f31000000000000000000000000000000000000000000000000000000000000008152506040518060400160405280600181526020017f46000000000000000000000000000000000000000000000000000000000000008152506200148260201b60201c565b620007d96040518060400160405280600881526020017f35613633316561390000000000000000000000000000000000000000000000008152506040518060400160405280600181526020017f31000000000000000000000000000000000000000000000000000000000000008152506040518060400160405280600181526020017f47000000000000000000000000000000000000000000000000000000000000008152506200148260201b60201c565b6200088b6040518060400160405280600881526020017f32353634623562630000000000000000000000000000000000000000000000008152506040518060400160405280600181526020017f31000000000000000000000000000000000000000000000000000000000000008152506040518060400160405280600181526020017f48000000000000000000000000000000000000000000000000000000000000008152506200148260201b60201c565b6200093d6040518060400160405280600881526020017f36653562333834640000000000000000000000000000000000000000000000008152506040518060400160405280600181526020017f31000000000000000000000000000000000000000000000000000000000000008152506040518060400160405280600181526020017f49000000000000000000000000000000000000000000000000000000000000008152506200148260201b60201c565b620009ef6040518060400160405280600881526020017f37613438303937340000000000000000000000000000000000000000000000008152506040518060400160405280600181526020017f31000000000000000000000000000000000000000000000000000000000000008152506040518060400160405280600181526020017f4a000000000000000000000000000000000000000000000000000000000000008152506200148260201b60201c565b62000aa16040518060400160405280600881526020017f39393439646132660000000000000000000000000000000000000000000000008152506040518060400160405280600181526020017f31000000000000000000000000000000000000000000000000000000000000008152506040518060400160405280600181526020017f4b000000000000000000000000000000000000000000000000000000000000008152506200148260201b60201c565b62000b536040518060400160405280600881526020017f35373461663337630000000000000000000000000000000000000000000000008152506040518060400160405280600181526020017f31000000000000000000000000000000000000000000000000000000000000008152506040518060400160405280600181526020017f4c000000000000000000000000000000000000000000000000000000000000008152506200148260201b60201c565b62000c056040518060400160405280600881526020017f64653933646564330000000000000000000000000000000000000000000000008152506040518060400160405280600181526020017f32000000000000000000000000000000000000000000000000000000000000008152506040518060400160405280600181526020017f41000000000000000000000000000000000000000000000000000000000000008152506200148260201b60201c565b62000cb76040518060400160405280600881526020017f35333833336436360000000000000000000000000000000000000000000000008152506040518060400160405280600181526020017f32000000000000000000000000000000000000000000000000000000000000008152506040518060400160405280600181526020017f42000000000000000000000000000000000000000000000000000000000000008152506200148260201b60201c565b62000d696040518060400160405280600881526020017f66633636646138370000000000000000000000000000000000000000000000008152506040518060400160405280600181526020017f32000000000000000000000000000000000000000000000000000000000000008152506040518060400160405280600181526020017f43000000000000000000000000000000000000000000000000000000000000008152506200148260201b60201c565b62000e1b6040518060400160405280600881526020017f35386562393563390000000000000000000000000000000000000000000000008152506040518060400160405280600181526020017f32000000000000000000000000000000000000000000000000000000000000008152506040518060400160405280600181526020017f44000000000000000000000000000000000000000000000000000000000000008152506200148260201b60201c565b62000ecd6040518060400160405280600881526020017f30343831636362340000000000000000000000000000000000000000000000008152506040518060400160405280600181526020017f32000000000000000000000000000000000000000000000000000000000000008152506040518060400160405280600181526020017f45000000000000000000000000000000000000000000000000000000000000008152506200148260201b60201c565b62000f7f6040518060400160405280600881526020017f65303164636632640000000000000000000000000000000000000000000000008152506040518060400160405280600181526020017f32000000000000000000000000000000000000000000000000000000000000008152506040518060400160405280600181526020017f46000000000000000000000000000000000000000000000000000000000000008152506200148260201b60201c565b620010316040518060400160405280600881526020017f62376161383737340000000000000000000000000000000000000000000000008152506040518060400160405280600181526020017f32000000000000000000000000000000000000000000000000000000000000008152506040518060400160405280600181526020017f47000000000000000000000000000000000000000000000000000000000000008152506200148260201b60201c565b620010e36040518060400160405280600881526020017f33656130373961300000000000000000000000000000000000000000000000008152506040518060400160405280600181526020017f32000000000000000000000000000000000000000000000000000000000000008152506040518060400160405280600181526020017f48000000000000000000000000000000000000000000000000000000000000008152506200148260201b60201c565b620011956040518060400160405280600881526020017f37383539316362370000000000000000000000000000000000000000000000008152506040518060400160405280600181526020017f32000000000000000000000000000000000000000000000000000000000000008152506040518060400160405280600181526020017f49000000000000000000000000000000000000000000000000000000000000008152506200148260201b60201c565b620012476040518060400160405280600881526020017f34386164636633310000000000000000000000000000000000000000000000008152506040518060400160405280600181526020017f32000000000000000000000000000000000000000000000000000000000000008152506040518060400160405280600181526020017f4a000000000000000000000000000000000000000000000000000000000000008152506200148260201b60201c565b620012f96040518060400160405280600881526020017f65393762326634370000000000000000000000000000000000000000000000008152506040518060400160405280600181526020017f32000000000000000000000000000000000000000000000000000000000000008152506040518060400160405280600181526020017f4b000000000000000000000000000000000000000000000000000000000000008152506200148260201b60201c565b620013ab6040518060400160405280600881526020017f65626164363936360000000000000000000000000000000000000000000000008152506040518060400160405280600181526020017f32000000000000000000000000000000000000000000000000000000000000008152506040518060400160405280600181526020017f4c000000000000000000000000000000000000000000000000000000000000008152506200148260201b60201c565b565b60405180608001604052808581526020018481526020018381526020018281525060026000600154815260200190815260200160002060008201518160000190805190602001906200140192919062001563565b5060208201518160010190805190602001906200142092919062001563565b5060408201518160020190805190602001906200143f92919062001563565b5060608201518160030190805190602001906200145e92919062001563565b5090505060016000815480929190620014779062001653565b919050555050505050565b60405180608001604052808481526020018381526020018281526020016040518060200160405280600081525081525060036000805481526020019081526020016000206000820151816000019080519060200190620014e492919062001563565b5060208201518160010190805190602001906200150392919062001563565b5060408201518160020190805190602001906200152292919062001563565b5060608201518160030190805190602001906200154192919062001563565b50905050600080815480929190620015599062001653565b9190505550505050565b82805462001571906200161d565b90600052602060002090601f016020900481019282620015955760008555620015e1565b82601f10620015b057805160ff1916838001178555620015e1565b82800160010185558215620015e1579182015b82811115620015e0578251825591602001919060010190620015c3565b5b509050620015f09190620015f4565b5090565b5b808211156200160f576000816000905550600101620015f5565b5090565b6000819050919050565b600060028204905060018216806200163657607f821691505b602082108114156200164d576200164c620016d0565b5b50919050565b6000620016608262001613565b91507fffffffffffffffffffffffffffffffffffffffffffffffffffffffffffffffff821415620016965762001695620016a1565b5b600182019050919050565b7f4e487b7100000000000000000000000000000000000000000000000000000000600052601160045260246000fd5b7f4e487b7100000000000000000000000000000000000000000000000000000000600052602260045260246000fd5b6117b0806200170f6000396000f3fe608060405234801561001057600080fd5b50600436106100625760003560e01c806317b58e8c146100675780632c162dbc14610097578063365b98b2146100c75780633b33c702146100fa5780636f7fcddb1461012d578063874b207714610149575b600080fd5b610081600480360381019061007c91906112d3565b610165565b60405161008e91906114c3565b60405180910390f35b6100b160048036038101906100ac91906110dd565b6103da565b6040516100be91906114e5565b60405180910390f35b6100e160048036038101906100dc91906112d3565b61083f565b6040516100f19493929190611462565b60405180910390f35b610114600480360381019061010f91906112d3565b610a8f565b6040516101249493929190611462565b60405180910390f35b610147600480360381019061014291906111fc565b610cdf565b005b610163600480360381019061015e9190611155565b610daa565b005b61016d610f65565b6003600083815260200190815260200160002060405180608001604052908160008201805461019b906115d6565b80601f01602080910402602001604051908101604052809291908181526020018280546101c7906115d6565b80156102145780601f106101e957610100808354040283529160200191610214565b820191906000526020600020905b8154815290600101906020018083116101f757829003601f168201915b5050505050815260200160018201805461022d906115d6565b80601f0160208091040260200160405190810160405280929190818152602001828054610259906115d6565b80156102a65780601f1061027b576101008083540402835291602001916102a6565b820191906000526020600020905b81548152906001019060200180831161028957829003601f168201915b505050505081526020016002820180546102bf906115d6565b80601f01602080910402602001604051908101604052809291908181526020018280546102eb906115d6565b80156103385780601f1061030d57610100808354040283529160200191610338565b820191906000526020600020905b81548152906001019060200180831161031b57829003601f168201915b50505050508152602001600382018054610351906115d6565b80601f016020809104026020016040519081016040528092919081815260200182805461037d906115d6565b80156103ca5780601f1061039f576101008083540402835291602001916103ca565b820191906000526020600020905b8154815290600101906020018083116103ad57829003601f168201915b5050505050815250509050919050565b6103e2610f8d565b6000604051806080016040528060405180602001604052806000815250815260200160405180602001604052806000815250815260200160405180602001604052806000815250815260200160405180602001604052806000815250815250905060005b60038110156108345760006104f986600260008581526020019081526020016000206002018054610476906115d6565b80601f01602080910402602001604051908101604052809291908181526020018280546104a2906115d6565b80156104ef5780601f106104c4576101008083540402835291602001916104ef565b820191906000526020600020905b8154815290600101906020018083116104d257829003601f168201915b5050505050610e81565b905060006105a586600260008681526020019081526020016000206003018054610522906115d6565b80601f016020809104026020016040519081016040528092919081815260200182805461054e906115d6565b801561059b5780601f106105705761010080835404028352916020019161059b565b820191906000526020600020905b81548152906001019060200180831161057e57829003601f168201915b5050505050610e81565b90508180156105b15750805b1561081f57600260008481526020019081526020016000206040518060800160405290816000820180546105e4906115d6565b80601f0160208091040260200160405190810160405280929190818152602001828054610610906115d6565b801561065d5780601f106106325761010080835404028352916020019161065d565b820191906000526020600020905b81548152906001019060200180831161064057829003601f168201915b50505050508152602001600182018054610676906115d6565b80601f01602080910402602001604051908101604052809291908181526020018280546106a2906115d6565b80156106ef5780601f106106c4576101008083540402835291602001916106ef565b820191906000526020600020905b8154815290600101906020018083116106d257829003601f168201915b50505050508152602001600282018054610708906115d6565b80601f0160208091040260200160405190810160405280929190818152602001828054610734906115d6565b80156107815780601f1061075657610100808354040283529160200191610781565b820191906000526020600020905b81548152906001019060200180831161076457829003601f168201915b5050505050815260200160038201805461079a906115d6565b80601f01602080910402602001604051908101604052809291908181526020018280546107c6906115d6565b80156108135780601f106107e857610100808354040283529160200191610813565b820191906000526020600020905b8154815290600101906020018083116107f657829003601f168201915b50505050508152505093505b5050808061082c90611639565b915050610446565b508091505092915050565b6002602052806000526040600020600091509050806000018054610862906115d6565b80601f016020809104026020016040519081016040528092919081815260200182805461088e906115d6565b80156108db5780601f106108b0576101008083540402835291602001916108db565b820191906000526020600020905b8154815290600101906020018083116108be57829003601f168201915b5050505050908060010180546108f0906115d6565b80601f016020809104026020016040519081016040528092919081815260200182805461091c906115d6565b80156109695780601f1061093e57610100808354040283529160200191610969565b820191906000526020600020905b81548152906001019060200180831161094c57829003601f168201915b50505050509080600201805461097e906115d6565b80601f01602080910402602001604051908101604052809291908181526020018280546109aa906115d6565b80156109f75780601f106109cc576101008083540402835291602001916109f7565b820191906000526020600020905b8154815290600101906020018083116109da57829003601f168201915b505050505090806003018054610a0c906115d6565b80601f0160208091040260200160405190810160405280929190818152602001828054610a38906115d6565b8015610a855780601f10610a5a57610100808354040283529160200191610a85565b820191906000526020600020905b815481529060010190602001808311610a6857829003601f168201915b5050505050905084565b6003602052806000526040600020600091509050806000018054610ab2906115d6565b80601f0160208091040260200160405190810160405280929190818152602001828054610ade906115d6565b8015610b2b5780601f10610b0057610100808354040283529160200191610b2b565b820191906000526020600020905b815481529060010190602001808311610b0e57829003601f168201915b505050505090806001018054610b40906115d6565b80601f0160208091040260200160405190810160405280929190818152602001828054610b6c906115d6565b8015610bb95780601f10610b8e57610100808354040283529160200191610bb9565b820191906000526020600020905b815481529060010190602001808311610b9c57829003601f168201915b505050505090806002018054610bce906115d6565b80601f0160208091040260200160405190810160405280929190818152602001828054610bfa906115d6565b8015610c475780601f10610c1c57610100808354040283529160200191610c47565b820191906000526020600020905b815481529060010190602001808311610c2a57829003601f168201915b505050505090806003018054610c5c906115d6565b80601f0160208091040260200160405190810160405280929190818152602001828054610c88906115d6565b8015610cd55780601f10610caa57610100808354040283529160200191610cd5565b820191906000526020600020905b815481529060010190602001808311610cb857829003601f168201915b5050505050905084565b6040518060800160405280858152602001848152602001838152602001828152506002600060015481526020019081526020016000206000820151816000019080519060200190610d31929190610fb5565b506020820151816001019080519060200190610d4e929190610fb5565b506040820151816002019080519060200190610d6b929190610fb5565b506060820151816003019080519060200190610d88929190610fb5565b5090505060016000815480929190610d9f90611639565b919050555050505050565b60405180608001604052808481526020018381526020018281526020016040518060200160405280600081525081525060036000805481526020019081526020016000206000820151816000019080519060200190610e0a929190610fb5565b506020820151816001019080519060200190610e27929190610fb5565b506040820151816002019080519060200190610e44929190610fb5565b506060820151816003019080519060200190610e61929190610fb5565b50905050600080815480929190610e7790611639565b9190505550505050565b600080839050600083905060008251905081518114610ea65760009350505050610f5f565b60005b81811015610f5657828181518110610ec457610ec36116e0565b5b602001015160f81c60f81b7effffffffffffffffffffffffffffffffffffffffffffffffffffffffffffff1916848281518110610f0457610f036116e0565b5b602001015160f81c60f81b7effffffffffffffffffffffffffffffffffffffffffffffffffffffffffffff191614610f43576000945050505050610f5f565b8080610f4e90611639565b915050610ea9565b50600193505050505b92915050565b6040518060800160405280606081526020016060815260200160608152602001606081525090565b6040518060800160405280606081526020016060815260200160608152602001606081525090565b828054610fc1906115d6565b90600052602060002090601f016020900481019282610fe3576000855561102a565b82601f10610ffc57805160ff191683800117855561102a565b8280016001018555821561102a579182015b8281111561102957825182559160200191906001019061100e565b5b509050611037919061103b565b5090565b5b8082111561105457600081600090555060010161103c565b5090565b600061106b6110668461152c565b611507565b90508281526020810184848401111561108757611086611743565b5b611092848285611594565b509392505050565b600082601f8301126110af576110ae61173e565b5b81356110bf848260208601611058565b91505092915050565b6000813590506110d781611763565b92915050565b600080604083850312156110f4576110f361174d565b5b600083013567ffffffffffffffff81111561111257611111611748565b5b61111e8582860161109a565b925050602083013567ffffffffffffffff81111561113f5761113e611748565b5b61114b8582860161109a565b9150509250929050565b60008060006060848603121561116e5761116d61174d565b5b600084013567ffffffffffffffff81111561118c5761118b611748565b5b6111988682870161109a565b935050602084013567ffffffffffffffff8111156111b9576111b8611748565b5b6111c58682870161109a565b925050604084013567ffffffffffffffff8111156111e6576111e5611748565b5b6111f28682870161109a565b9150509250925092565b600080600080608085870312156112165761121561174d565b5b600085013567ffffffffffffffff81111561123457611233611748565b5b6112408782880161109a565b945050602085013567ffffffffffffffff81111561126157611260611748565b5b61126d8782880161109a565b935050604085013567ffffffffffffffff81111561128e5761128d611748565b5b61129a8782880161109a565b925050606085013567ffffffffffffffff8111156112bb576112ba611748565b5b6112c78782880161109a565b91505092959194509250565b6000602082840312156112e9576112e861174d565b5b60006112f7848285016110c8565b91505092915050565b600061130b8261155d565b6113158185611568565b93506113258185602086016115a3565b61132e81611752565b840191505092915050565b60006113448261155d565b61134e8185611579565b935061135e8185602086016115a3565b61136781611752565b840191505092915050565b6000608083016000830151848203600086015261138f8282611300565b915050602083015184820360208601526113a98282611300565b915050604083015184820360408601526113c38282611300565b915050606083015184820360608601526113dd8282611300565b9150508091505092915050565b600060808301600083015184820360008601526114078282611300565b915050602083015184820360208601526114218282611300565b9150506040830151848203604086015261143b8282611300565b915050606083015184820360608601526114558282611300565b9150508091505092915050565b6000608082019050818103600083015261147c8187611339565b905081810360208301526114908186611339565b905081810360408301526114a48185611339565b905081810360608301526114b88184611339565b905095945050505050565b600060208201905081810360008301526114dd8184611372565b905092915050565b600060208201905081810360008301526114ff81846113ea565b905092915050565b6000611511611522565b905061151d8282611608565b919050565b6000604051905090565b600067ffffffffffffffff8211156115475761154661170f565b5b61155082611752565b9050602081019050919050565b600081519050919050565b600082825260208201905092915050565b600082825260208201905092915050565b6000819050919050565b82818337600083830152505050565b60005b838110156115c15780820151818401526020810190506115a6565b838111156115d0576000848401525b50505050565b600060028204905060018216806115ee57607f821691505b60208210811415611602576116016116b1565b5b50919050565b61161182611752565b810181811067ffffffffffffffff821117156116305761162f61170f565b5b80604052505050565b60006116448261158a565b91507fffffffffffffffffffffffffffffffffffffffffffffffffffffffffffffffff82141561167757611676611682565b5b600182019050919050565b7f4e487b7100000000000000000000000000000000000000000000000000000000600052601160045260246000fd5b7f4e487b7100000000000000000000000000000000000000000000000000000000600052602260045260246000fd5b7f4e487b7100000000000000000000000000000000000000000000000000000000600052603260045260246000fd5b7f4e487b7100000000000000000000000000000000000000000000000000000000600052604160045260246000fd5b600080fd5b600080fd5b600080fd5b600080fd5b6000601f19601f8301169050919050565b61176c8161158a565b811461177757600080fd5b5056fea26469706673582212208c1a321569bee54f9e4d865d7161bb724af9684f277175b2037dfed0b04da4c764736f6c63430008060033",
  "immutableReferences": {},
  "source": "pragma solidity ^0.8.6;\r\n\r\ncontract SeatContract {\r\n\r\n  uint seatCounter = 0;\r\n  uint userCounter = 0;\r\n\r\n  struct Seat {\r\n    string id;\r\n    string row;\r\n    string column;\r\n    string idTicket;\r\n  }\r\n\r\n  struct User {\r\n    string id;\r\n    string name;\r\n    string email;\r\n    string password;\r\n  }\r\n\r\n  struct Ticket {\r\n    uint id;\r\n    string name;\r\n    mapping (uint => Seat) seats;\r\n  }\r\n\r\n  constructor () {\r\n    createUsers();\r\n    createSeats();\r\n  }\r\n\r\n  mapping (uint => User) public users;\r\n  mapping (uint => Seat) public seats;\r\n\r\n  // Create at the beginning\r\n  function createUsers () private {\r\n    createUser(\"01a5c7e2\", \"Andre Lizaran\", \"andrelizaran@gmail.com\", \"HelloWorld123\");\r\n    createUser(\"63274626\", \"Yelitza Magali\", \"yelitzamagali@gmai.com\", \"HelloWorld123\");\r\n    createUser(\"ec073f01\", \"Marco Cortes\", \"marcocortes@gmai.com\", \"HelloWorld123\");\r\n  }\r\n\r\n  function createSeats () private {\r\n    createSeat(\"0ee0ff36\", \"1\", \"A\");\r\n    createSeat(\"3a03f97f\", \"1\", \"B\");\r\n    createSeat(\"3765447a\", \"1\", \"C\");\r\n    createSeat(\"d2456ef7\", \"1\", \"D\");\r\n    createSeat(\"6d16282e\", \"1\", \"E\");\r\n    createSeat(\"25223433\", \"1\", \"F\");\r\n    createSeat(\"5a631ea9\", \"1\", \"G\");\r\n    createSeat(\"2564b5bc\", \"1\", \"H\");\r\n    createSeat(\"6e5b384d\", \"1\", \"I\");\r\n    createSeat(\"7a480974\", \"1\", \"J\");\r\n    createSeat(\"9949da2f\", \"1\", \"K\");\r\n    createSeat(\"574af37c\", \"1\", \"L\");\r\n    createSeat(\"de93ded3\", \"2\", \"A\");\r\n    createSeat(\"53833d66\", \"2\", \"B\");\r\n    createSeat(\"fc66da87\", \"2\", \"C\");\r\n    createSeat(\"58eb95c9\", \"2\", \"D\");\r\n    createSeat(\"0481ccb4\", \"2\", \"E\");\r\n    createSeat(\"e01dcf2d\", \"2\", \"F\");\r\n    createSeat(\"b7aa8774\", \"2\", \"G\");\r\n    createSeat(\"3ea079a0\", \"2\", \"H\");\r\n    createSeat(\"78591cb7\", \"2\", \"I\");\r\n    createSeat(\"48adcf31\", \"2\", \"J\");\r\n    createSeat(\"e97b2f47\", \"2\", \"K\");\r\n    createSeat(\"ebad6966\", \"2\", \"L\");\r\n  }\r\n\r\n  function createUser (string memory _id, string memory _name, string memory _email, string memory _password) public {\r\n    users[userCounter] = User(_id, _name, _email, _password);\r\n    userCounter++;\r\n  }\r\n\r\n  function createSeat (string memory _id, string memory _row, string memory _column) public {\r\n    seats[seatCounter] = Seat(_id, _row, _column, '');\r\n    seatCounter++;\r\n  }\r\n\r\n  function signIn (string memory _email, string memory _password) public view returns (User memory) {\r\n    User memory selectedUser = User(\"\", \"\", \"\", \"\");\r\n    for (uint i = 0; i < 3; i++) {\r\n      bool compareEmails = stringsEquals(_email, users[i].email);\r\n      bool comparePasswords = stringsEquals(_password, users[i].password);\r\n      if (compareEmails && comparePasswords) {\r\n        selectedUser = users[i];\r\n      }\r\n    }\r\n    return selectedUser;\r\n  }\r\n\r\n  function getSeat (uint _position) public view returns (Seat memory) {\r\n    return seats[_position];\r\n  }\r\n\r\n  function stringsEquals(string memory s1, string memory s2) private pure returns (bool) {\r\n    bytes memory b1 = bytes(s1);\r\n    bytes memory b2 = bytes(s2);\r\n    uint256 l1 = b1.length;\r\n    if (l1 != b2.length) return false;\r\n    for (uint256 i=0; i<l1; i++) {\r\n        if (b1[i] != b2[i]) return false;\r\n    }\r\n    return true;\r\n  }\r\n\r\n}",
  "sourcePath": "D:\\Personal\\Clean Briefcase\\5. TicketContract\\contracts\\SeatContract.sol",
  "compiler": {
    "name": "solc",
    "version": "0.8.6+commit.11564f7e.Emscripten.clang"
  },
  "schemaVersion": "3.4.11",
  "updatedAt": "2022-12-07T04:33:18.385Z",
  "networkType": "ethereum",
  "devdoc": {
    "kind": "dev",
    "methods": {},
    "version": 1
  },
  "userdoc": {
    "kind": "user",
    "methods": {},
    "version": 1
  }
}