{
  "contractName": "SeatContract",
  "abi": [
    {
      "inputs": [],
      "stateMutability": "nonpayable",
      "type": "constructor"
    },
    {
      "inputs": [
        {
          "internalType": "uint256",
          "name": "",
          "type": "uint256"
        }
      ],
      "name": "seats",
      "outputs": [
        {
          "internalType": "string",
          "name": "id",
          "type": "string"
        },
        {
          "internalType": "string",
          "name": "row",
          "type": "string"
        },
        {
          "internalType": "string",
          "name": "column",
          "type": "string"
        },
        {
          "internalType": "string",
          "name": "idTicket",
          "type": "string"
        }
      ],
      "stateMutability": "view",
      "type": "function",
      "constant": true
    },
    {
      "inputs": [
        {
          "internalType": "uint256",
          "name": "",
          "type": "uint256"
        }
      ],
      "name": "tickets",
      "outputs": [
        {
          "internalType": "string",
          "name": "id",
          "type": "string"
        },
        {
          "internalType": "string",
          "name": "idSeat",
          "type": "string"
        },
        {
          "internalType": "string",
          "name": "idUser",
          "type": "string"
        }
      ],
      "stateMutability": "view",
      "type": "function",
      "constant": true
    },
    {
      "inputs": [
        {
          "internalType": "uint256",
          "name": "",
          "type": "uint256"
        }
      ],
      "name": "users",
      "outputs": [
        {
          "internalType": "string",
          "name": "id",
          "type": "string"
        },
        {
          "internalType": "string",
          "name": "name",
          "type": "string"
        },
        {
          "internalType": "string",
          "name": "email",
          "type": "string"
        },
        {
          "internalType": "string",
          "name": "password",
          "type": "string"
        }
      ],
      "stateMutability": "view",
      "type": "function",
      "constant": true
    },
    {
      "inputs": [
        {
          "internalType": "string",
          "name": "_id",
          "type": "string"
        },
        {
          "internalType": "string",
          "name": "_name",
          "type": "string"
        },
        {
          "internalType": "string",
          "name": "_email",
          "type": "string"
        },
        {
          "internalType": "string",
          "name": "_password",
          "type": "string"
        }
      ],
      "name": "createUser",
      "outputs": [],
      "stateMutability": "nonpayable",
      "type": "function"
    },
    {
      "inputs": [
        {
          "internalType": "string",
          "name": "_id",
          "type": "string"
        },
        {
          "internalType": "string",
          "name": "_row",
          "type": "string"
        },
        {
          "internalType": "string",
          "name": "_column",
          "type": "string"
        }
      ],
      "name": "createSeat",
      "outputs": [],
      "stateMutability": "nonpayable",
      "type": "function"
    },
    {
      "inputs": [
        {
          "internalType": "string",
          "name": "_id",
          "type": "string"
        },
        {
          "internalType": "string",
          "name": "_idSeat",
          "type": "string"
        },
        {
          "internalType": "string",
          "name": "_idUser",
          "type": "string"
        }
      ],
      "name": "createTicket",
      "outputs": [],
      "stateMutability": "nonpayable",
      "type": "function"
    },
    {
      "inputs": [
        {
          "internalType": "string",
          "name": "_email",
          "type": "string"
        },
        {
          "internalType": "string",
          "name": "_password",
          "type": "string"
        }
      ],
      "name": "signIn",
      "outputs": [
        {
          "components": [
            {
              "internalType": "string",
              "name": "id",
              "type": "string"
            },
            {
              "internalType": "string",
              "name": "name",
              "type": "string"
            },
            {
              "internalType": "string",
              "name": "email",
              "type": "string"
            },
            {
              "internalType": "string",
              "name": "password",
              "type": "string"
            }
          ],
          "internalType": "struct SeatContract.User",
          "name": "",
          "type": "tuple"
        }
      ],
      "stateMutability": "view",
      "type": "function",
      "constant": true
    },
    {
      "inputs": [
        {
          "internalType": "string",
          "name": "_idTicket",
          "type": "string"
        },
        {
          "internalType": "string",
          "name": "_idSeat",
          "type": "string"
        },
        {
          "internalType": "string",
          "name": "_idUser",
          "type": "string"
        }
      ],
      "name": "sellTicket",
      "outputs": [],
      "stateMutability": "nonpayable",
      "type": "function"
    },
    {
      "inputs": [
        {
          "internalType": "uint256",
          "name": "_position",
          "type": "uint256"
        }
      ],
      "name": "getSeat",
      "outputs": [
        {
          "components": [
            {
              "internalType": "string",
              "name": "id",
              "type": "string"
            },
            {
              "internalType": "string",
              "name": "row",
              "type": "string"
            },
            {
              "internalType": "string",
              "name": "column",
              "type": "string"
            },
            {
              "internalType": "string",
              "name": "idTicket",
              "type": "string"
            }
          ],
          "internalType": "struct SeatContract.Seat",
          "name": "",
          "type": "tuple"
        }
      ],
      "stateMutability": "view",
      "type": "function",
      "constant": true
    }
  ],
  "bytecode": "0x608060405260008055600060015560006002553480156200001f57600080fd5b50620000306200004660201b60201c565b620000406200030060201b60201c565b62001704565b6200012e6040518060400160405280600881526020017f30316135633765320000000000000000000000000000000000000000000000008152506040518060400160405280600d81526020017f416e647265204c697a6172616e000000000000000000000000000000000000008152506040518060400160405280601681526020017f616e6472656c697a6172616e40676d61696c2e636f6d000000000000000000008152506040518060400160405280600d81526020017f48656c6c6f576f726c6431323300000000000000000000000000000000000000815250620013b260201b60201c565b620002166040518060400160405280600881526020017f36333237343632360000000000000000000000000000000000000000000000008152506040518060400160405280600e81526020017f59656c69747a61204d6167616c690000000000000000000000000000000000008152506040518060400160405280601681526020017f79656c69747a616d6167616c6940676d61692e636f6d000000000000000000008152506040518060400160405280600d81526020017f48656c6c6f576f726c6431323300000000000000000000000000000000000000815250620013b260201b60201c565b620002fe6040518060400160405280600881526020017f65633037336630310000000000000000000000000000000000000000000000008152506040518060400160405280600c81526020017f4d6172636f20436f7274657300000000000000000000000000000000000000008152506040518060400160405280601481526020017f6d6172636f636f7274657340676d61692e636f6d0000000000000000000000008152506040518060400160405280600d81526020017f48656c6c6f576f726c6431323300000000000000000000000000000000000000815250620013b260201b60201c565b565b620003b26040518060400160405280600881526020017f30656530666633360000000000000000000000000000000000000000000000008152506040518060400160405280600181526020017f31000000000000000000000000000000000000000000000000000000000000008152506040518060400160405280600181526020017f41000000000000000000000000000000000000000000000000000000000000008152506200148760201b60201c565b620004646040518060400160405280600881526020017f33613033663937660000000000000000000000000000000000000000000000008152506040518060400160405280600181526020017f31000000000000000000000000000000000000000000000000000000000000008152506040518060400160405280600181526020017f42000000000000000000000000000000000000000000000000000000000000008152506200148760201b60201c565b620005166040518060400160405280600881526020017f33373635343437610000000000000000000000000000000000000000000000008152506040518060400160405280600181526020017f31000000000000000000000000000000000000000000000000000000000000008152506040518060400160405280600181526020017f43000000000000000000000000000000000000000000000000000000000000008152506200148760201b60201c565b620005c86040518060400160405280600881526020017f64323435366566370000000000000000000000000000000000000000000000008152506040518060400160405280600181526020017f31000000000000000000000000000000000000000000000000000000000000008152506040518060400160405280600181526020017f44000000000000000000000000000000000000000000000000000000000000008152506200148760201b60201c565b6200067a6040518060400160405280600881526020017f36643136323832650000000000000000000000000000000000000000000000008152506040518060400160405280600181526020017f31000000000000000000000000000000000000000000000000000000000000008152506040518060400160405280600181526020017f45000000000000000000000000000000000000000000000000000000000000008152506200148760201b60201c565b6200072c6040518060400160405280600881526020017f32353232333433330000000000000000000000000000000000000000000000008152506040518060400160405280600181526020017f31000000000000000000000000000000000000000000000000000000000000008152506040518060400160405280600181526020017f46000000000000000000000000000000000000000000000000000000000000008152506200148760201b60201c565b620007de6040518060400160405280600881526020017f35613633316561390000000000000000000000000000000000000000000000008152506040518060400160405280600181526020017f31000000000000000000000000000000000000000000000000000000000000008152506040518060400160405280600181526020017f47000000000000000000000000000000000000000000000000000000000000008152506200148760201b60201c565b620008906040518060400160405280600881526020017f32353634623562630000000000000000000000000000000000000000000000008152506040518060400160405280600181526020017f31000000000000000000000000000000000000000000000000000000000000008152506040518060400160405280600181526020017f48000000000000000000000000000000000000000000000000000000000000008152506200148760201b60201c565b620009426040518060400160405280600881526020017f36653562333834640000000000000000000000000000000000000000000000008152506040518060400160405280600181526020017f31000000000000000000000000000000000000000000000000000000000000008152506040518060400160405280600181526020017f49000000000000000000000000000000000000000000000000000000000000008152506200148760201b60201c565b620009f46040518060400160405280600881526020017f37613438303937340000000000000000000000000000000000000000000000008152506040518060400160405280600181526020017f31000000000000000000000000000000000000000000000000000000000000008152506040518060400160405280600181526020017f4a000000000000000000000000000000000000000000000000000000000000008152506200148760201b60201c565b62000aa66040518060400160405280600881526020017f39393439646132660000000000000000000000000000000000000000000000008152506040518060400160405280600181526020017f31000000000000000000000000000000000000000000000000000000000000008152506040518060400160405280600181526020017f4b000000000000000000000000000000000000000000000000000000000000008152506200148760201b60201c565b62000b586040518060400160405280600881526020017f35373461663337630000000000000000000000000000000000000000000000008152506040518060400160405280600181526020017f31000000000000000000000000000000000000000000000000000000000000008152506040518060400160405280600181526020017f4c000000000000000000000000000000000000000000000000000000000000008152506200148760201b60201c565b62000c0a6040518060400160405280600881526020017f64653933646564330000000000000000000000000000000000000000000000008152506040518060400160405280600181526020017f32000000000000000000000000000000000000000000000000000000000000008152506040518060400160405280600181526020017f41000000000000000000000000000000000000000000000000000000000000008152506200148760201b60201c565b62000cbc6040518060400160405280600881526020017f35333833336436360000000000000000000000000000000000000000000000008152506040518060400160405280600181526020017f32000000000000000000000000000000000000000000000000000000000000008152506040518060400160405280600181526020017f42000000000000000000000000000000000000000000000000000000000000008152506200148760201b60201c565b62000d6e6040518060400160405280600881526020017f66633636646138370000000000000000000000000000000000000000000000008152506040518060400160405280600181526020017f32000000000000000000000000000000000000000000000000000000000000008152506040518060400160405280600181526020017f43000000000000000000000000000000000000000000000000000000000000008152506200148760201b60201c565b62000e206040518060400160405280600881526020017f35386562393563390000000000000000000000000000000000000000000000008152506040518060400160405280600181526020017f32000000000000000000000000000000000000000000000000000000000000008152506040518060400160405280600181526020017f44000000000000000000000000000000000000000000000000000000000000008152506200148760201b60201c565b62000ed26040518060400160405280600881526020017f30343831636362340000000000000000000000000000000000000000000000008152506040518060400160405280600181526020017f32000000000000000000000000000000000000000000000000000000000000008152506040518060400160405280600181526020017f45000000000000000000000000000000000000000000000000000000000000008152506200148760201b60201c565b62000f846040518060400160405280600881526020017f65303164636632640000000000000000000000000000000000000000000000008152506040518060400160405280600181526020017f32000000000000000000000000000000000000000000000000000000000000008152506040518060400160405280600181526020017f46000000000000000000000000000000000000000000000000000000000000008152506200148760201b60201c565b620010366040518060400160405280600881526020017f62376161383737340000000000000000000000000000000000000000000000008152506040518060400160405280600181526020017f32000000000000000000000000000000000000000000000000000000000000008152506040518060400160405280600181526020017f47000000000000000000000000000000000000000000000000000000000000008152506200148760201b60201c565b620010e86040518060400160405280600881526020017f33656130373961300000000000000000000000000000000000000000000000008152506040518060400160405280600181526020017f32000000000000000000000000000000000000000000000000000000000000008152506040518060400160405280600181526020017f48000000000000000000000000000000000000000000000000000000000000008152506200148760201b60201c565b6200119a6040518060400160405280600881526020017f37383539316362370000000000000000000000000000000000000000000000008152506040518060400160405280600181526020017f32000000000000000000000000000000000000000000000000000000000000008152506040518060400160405280600181526020017f49000000000000000000000000000000000000000000000000000000000000008152506200148760201b60201c565b6200124c6040518060400160405280600881526020017f34386164636633310000000000000000000000000000000000000000000000008152506040518060400160405280600181526020017f32000000000000000000000000000000000000000000000000000000000000008152506040518060400160405280600181526020017f4a000000000000000000000000000000000000000000000000000000000000008152506200148760201b60201c565b620012fe6040518060400160405280600881526020017f65393762326634370000000000000000000000000000000000000000000000008152506040518060400160405280600181526020017f32000000000000000000000000000000000000000000000000000000000000008152506040518060400160405280600181526020017f4b000000000000000000000000000000000000000000000000000000000000008152506200148760201b60201c565b620013b06040518060400160405280600881526020017f65626164363936360000000000000000000000000000000000000000000000008152506040518060400160405280600181526020017f32000000000000000000000000000000000000000000000000000000000000008152506040518060400160405280600181526020017f4c000000000000000000000000000000000000000000000000000000000000008152506200148760201b60201c565b565b60405180608001604052808581526020018481526020018381526020018281525060036000600154815260200190815260200160002060008201518160000190805190602001906200140692919062001568565b5060208201518160010190805190602001906200142592919062001568565b5060408201518160020190805190602001906200144492919062001568565b5060608201518160030190805190602001906200146392919062001568565b50905050600160008154809291906200147c9062001658565b919050555050505050565b60405180608001604052808481526020018381526020018281526020016040518060200160405280600081525081525060046000805481526020019081526020016000206000820151816000019080519060200190620014e992919062001568565b5060208201518160010190805190602001906200150892919062001568565b5060408201518160020190805190602001906200152792919062001568565b5060608201518160030190805190602001906200154692919062001568565b509050506000808154809291906200155e9062001658565b9190505550505050565b828054620015769062001622565b90600052602060002090601f0160209004810192826200159a5760008555620015e6565b82601f10620015b557805160ff1916838001178555620015e6565b82800160010185558215620015e6579182015b82811115620015e5578251825591602001919060010190620015c8565b5b509050620015f59190620015f9565b5090565b5b8082111562001614576000816000905550600101620015fa565b5090565b6000819050919050565b600060028204905060018216806200163b57607f821691505b60208210811415620016525762001651620016d5565b5b50919050565b6000620016658262001618565b91507fffffffffffffffffffffffffffffffffffffffffffffffffffffffffffffffff8214156200169b576200169a620016a6565b5b600182019050919050565b7f4e487b7100000000000000000000000000000000000000000000000000000000600052601160045260246000fd5b7f4e487b7100000000000000000000000000000000000000000000000000000000600052602260045260246000fd5b611dd380620017146000396000f3fe608060405234801561001057600080fd5b50600436106100935760003560e01c80633dc261f9116100665780633dc261f91461015e57806350b447121461017a5780636f7fcddb146101ac578063874b2077146101c85780639f7ac433146101e457610093565b806317b58e8c146100985780632c162dbc146100c8578063365b98b2146100f85780633b33c7021461012b575b600080fd5b6100b260048036038101906100ad91906118aa565b610200565b6040516100bf9190611ae6565b60405180910390f35b6100e260048036038101906100dd91906116b4565b610475565b6040516100ef9190611b08565b60405180910390f35b610112600480360381019061010d91906118aa565b6108db565b6040516101229493929190611a85565b60405180910390f35b610145600480360381019061014091906118aa565b610b2b565b6040516101559493929190611a85565b60405180910390f35b6101786004803603810190610173919061172c565b610d7b565b005b610194600480360381019061018f91906118aa565b610e22565b6040516101a393929190611a39565b60405180910390f35b6101c660048036038101906101c191906117d3565b610fe4565b005b6101e260048036038101906101dd919061172c565b6110af565b005b6101fe60048036038101906101f9919061172c565b611186565b005b61020861153c565b6004600083815260200190815260200160002060405180608001604052908160008201805461023690611bf9565b80601f016020809104026020016040519081016040528092919081815260200182805461026290611bf9565b80156102af5780601f10610284576101008083540402835291602001916102af565b820191906000526020600020905b81548152906001019060200180831161029257829003601f168201915b505050505081526020016001820180546102c890611bf9565b80601f01602080910402602001604051908101604052809291908181526020018280546102f490611bf9565b80156103415780601f1061031657610100808354040283529160200191610341565b820191906000526020600020905b81548152906001019060200180831161032457829003601f168201915b5050505050815260200160028201805461035a90611bf9565b80601f016020809104026020016040519081016040528092919081815260200182805461038690611bf9565b80156103d35780601f106103a8576101008083540402835291602001916103d3565b820191906000526020600020905b8154815290600101906020018083116103b657829003601f168201915b505050505081526020016003820180546103ec90611bf9565b80601f016020809104026020016040519081016040528092919081815260200182805461041890611bf9565b80156104655780601f1061043a57610100808354040283529160200191610465565b820191906000526020600020905b81548152906001019060200180831161044857829003601f168201915b5050505050815250509050919050565b61047d611564565b6000604051806080016040528060405180602001604052806000815250815260200160405180602001604052806000815250815260200160405180602001604052806000815250815260200160405180602001604052806000815250815250905060005b6001548110156108d05760006105958660036000858152602001908152602001600020600201805461051290611bf9565b80601f016020809104026020016040519081016040528092919081815260200182805461053e90611bf9565b801561058b5780601f106105605761010080835404028352916020019161058b565b820191906000526020600020905b81548152906001019060200180831161056e57829003601f168201915b5050505050611458565b90506000610641866003600086815260200190815260200160002060030180546105be90611bf9565b80601f01602080910402602001604051908101604052809291908181526020018280546105ea90611bf9565b80156106375780601f1061060c57610100808354040283529160200191610637565b820191906000526020600020905b81548152906001019060200180831161061a57829003601f168201915b5050505050611458565b905081801561064d5750805b156108bb576003600084815260200190815260200160002060405180608001604052908160008201805461068090611bf9565b80601f01602080910402602001604051908101604052809291908181526020018280546106ac90611bf9565b80156106f95780601f106106ce576101008083540402835291602001916106f9565b820191906000526020600020905b8154815290600101906020018083116106dc57829003601f168201915b5050505050815260200160018201805461071290611bf9565b80601f016020809104026020016040519081016040528092919081815260200182805461073e90611bf9565b801561078b5780601f106107605761010080835404028352916020019161078b565b820191906000526020600020905b81548152906001019060200180831161076e57829003601f168201915b505050505081526020016002820180546107a490611bf9565b80601f01602080910402602001604051908101604052809291908181526020018280546107d090611bf9565b801561081d5780601f106107f25761010080835404028352916020019161081d565b820191906000526020600020905b81548152906001019060200180831161080057829003601f168201915b5050505050815260200160038201805461083690611bf9565b80601f016020809104026020016040519081016040528092919081815260200182805461086290611bf9565b80156108af5780601f10610884576101008083540402835291602001916108af565b820191906000526020600020905b81548152906001019060200180831161089257829003601f168201915b50505050508152505093505b505080806108c890611c5c565b9150506104e1565b508091505092915050565b60036020528060005260406000206000915090508060000180546108fe90611bf9565b80601f016020809104026020016040519081016040528092919081815260200182805461092a90611bf9565b80156109775780601f1061094c57610100808354040283529160200191610977565b820191906000526020600020905b81548152906001019060200180831161095a57829003601f168201915b50505050509080600101805461098c90611bf9565b80601f01602080910402602001604051908101604052809291908181526020018280546109b890611bf9565b8015610a055780601f106109da57610100808354040283529160200191610a05565b820191906000526020600020905b8154815290600101906020018083116109e857829003601f168201915b505050505090806002018054610a1a90611bf9565b80601f0160208091040260200160405190810160405280929190818152602001828054610a4690611bf9565b8015610a935780601f10610a6857610100808354040283529160200191610a93565b820191906000526020600020905b815481529060010190602001808311610a7657829003601f168201915b505050505090806003018054610aa890611bf9565b80601f0160208091040260200160405190810160405280929190818152602001828054610ad490611bf9565b8015610b215780601f10610af657610100808354040283529160200191610b21565b820191906000526020600020905b815481529060010190602001808311610b0457829003601f168201915b5050505050905084565b6004602052806000526040600020600091509050806000018054610b4e90611bf9565b80601f0160208091040260200160405190810160405280929190818152602001828054610b7a90611bf9565b8015610bc75780601f10610b9c57610100808354040283529160200191610bc7565b820191906000526020600020905b815481529060010190602001808311610baa57829003601f168201915b505050505090806001018054610bdc90611bf9565b80601f0160208091040260200160405190810160405280929190818152602001828054610c0890611bf9565b8015610c555780601f10610c2a57610100808354040283529160200191610c55565b820191906000526020600020905b815481529060010190602001808311610c3857829003601f168201915b505050505090806002018054610c6a90611bf9565b80601f0160208091040260200160405190810160405280929190818152602001828054610c9690611bf9565b8015610ce35780601f10610cb857610100808354040283529160200191610ce3565b820191906000526020600020905b815481529060010190602001808311610cc657829003601f168201915b505050505090806003018054610cf890611bf9565b80601f0160208091040260200160405190810160405280929190818152602001828054610d2490611bf9565b8015610d715780601f10610d4657610100808354040283529160200191610d71565b820191906000526020600020905b815481529060010190602001808311610d5457829003601f168201915b5050505050905084565b6040518060600160405280848152602001838152602001828152506005600060025481526020019081526020016000206000820151816000019080519060200190610dc792919061158c565b506020820151816001019080519060200190610de492919061158c565b506040820151816002019080519060200190610e0192919061158c565b5090505060026000815480929190610e1890611c5c565b9190505550505050565b6005602052806000526040600020600091509050806000018054610e4590611bf9565b80601f0160208091040260200160405190810160405280929190818152602001828054610e7190611bf9565b8015610ebe5780601f10610e9357610100808354040283529160200191610ebe565b820191906000526020600020905b815481529060010190602001808311610ea157829003601f168201915b505050505090806001018054610ed390611bf9565b80601f0160208091040260200160405190810160405280929190818152602001828054610eff90611bf9565b8015610f4c5780601f10610f2157610100808354040283529160200191610f4c565b820191906000526020600020905b815481529060010190602001808311610f2f57829003601f168201915b505050505090806002018054610f6190611bf9565b80601f0160208091040260200160405190810160405280929190818152602001828054610f8d90611bf9565b8015610fda5780601f10610faf57610100808354040283529160200191610fda565b820191906000526020600020905b815481529060010190602001808311610fbd57829003601f168201915b5050505050905083565b604051806080016040528085815260200184815260200183815260200182815250600360006001548152602001908152602001600020600082015181600001908051906020019061103692919061158c565b50602082015181600101908051906020019061105392919061158c565b50604082015181600201908051906020019061107092919061158c565b50606082015181600301908051906020019061108d92919061158c565b50905050600160008154809291906110a490611c5c565b919050555050505050565b6040518060800160405280848152602001838152602001828152602001604051806020016040528060008152508152506004600080548152602001908152602001600020600082015181600001908051906020019061110f92919061158c565b50602082015181600101908051906020019061112c92919061158c565b50604082015181600201908051906020019061114992919061158c565b50606082015181600301908051906020019061116692919061158c565b5090505060008081548092919061117c90611c5c565b9190505550505050565b60005b60025481101561144757600061123d846004600085815260200190815260200160002060000180546111ba90611bf9565b80601f01602080910402602001604051908101604052809291908181526020018280546111e690611bf9565b80156112335780601f1061120857610100808354040283529160200191611233565b820191906000526020600020905b81548152906001019060200180831161121657829003601f168201915b5050505050611458565b90508015611433576000604051806080016040528086815260200160046000868152602001908152602001600020600101805461127990611bf9565b80601f01602080910402602001604051908101604052809291908181526020018280546112a590611bf9565b80156112f25780601f106112c7576101008083540402835291602001916112f2565b820191906000526020600020905b8154815290600101906020018083116112d557829003601f168201915b5050505050815260200160046000868152602001908152602001600020600201805461131d90611bf9565b80601f016020809104026020016040519081016040528092919081815260200182805461134990611bf9565b80156113965780601f1061136b57610100808354040283529160200191611396565b820191906000526020600020905b81548152906001019060200180831161137957829003601f168201915b50505050508152602001878152509050806004600085815260200190815260200160002060008201518160000190805190602001906113d692919061158c565b5060208201518160010190805190602001906113f392919061158c565b50604082015181600201908051906020019061141092919061158c565b50606082015181600301908051906020019061142d92919061158c565b50905050505b50808061143f90611c5c565b915050611189565b50611453838383610d7b565b505050565b60008083905060008390506000825190508151811461147d5760009350505050611536565b60005b8181101561152d5782818151811061149b5761149a611d03565b5b602001015160f81c60f81b7effffffffffffffffffffffffffffffffffffffffffffffffffffffffffffff19168482815181106114db576114da611d03565b5b602001015160f81c60f81b7effffffffffffffffffffffffffffffffffffffffffffffffffffffffffffff19161461151a576000945050505050611536565b808061152590611c5c565b915050611480565b50600193505050505b92915050565b6040518060800160405280606081526020016060815260200160608152602001606081525090565b6040518060800160405280606081526020016060815260200160608152602001606081525090565b82805461159890611bf9565b90600052602060002090601f0160209004810192826115ba5760008555611601565b82601f106115d357805160ff1916838001178555611601565b82800160010185558215611601579182015b828111156116005782518255916020019190600101906115e5565b5b50905061160e9190611612565b5090565b5b8082111561162b576000816000905550600101611613565b5090565b600061164261163d84611b4f565b611b2a565b90508281526020810184848401111561165e5761165d611d66565b5b611669848285611bb7565b509392505050565b600082601f83011261168657611685611d61565b5b813561169684826020860161162f565b91505092915050565b6000813590506116ae81611d86565b92915050565b600080604083850312156116cb576116ca611d70565b5b600083013567ffffffffffffffff8111156116e9576116e8611d6b565b5b6116f585828601611671565b925050602083013567ffffffffffffffff81111561171657611715611d6b565b5b61172285828601611671565b9150509250929050565b60008060006060848603121561174557611744611d70565b5b600084013567ffffffffffffffff81111561176357611762611d6b565b5b61176f86828701611671565b935050602084013567ffffffffffffffff8111156117905761178f611d6b565b5b61179c86828701611671565b925050604084013567ffffffffffffffff8111156117bd576117bc611d6b565b5b6117c986828701611671565b9150509250925092565b600080600080608085870312156117ed576117ec611d70565b5b600085013567ffffffffffffffff81111561180b5761180a611d6b565b5b61181787828801611671565b945050602085013567ffffffffffffffff81111561183857611837611d6b565b5b61184487828801611671565b935050604085013567ffffffffffffffff81111561186557611864611d6b565b5b61187187828801611671565b925050606085013567ffffffffffffffff81111561189257611891611d6b565b5b61189e87828801611671565b91505092959194509250565b6000602082840312156118c0576118bf611d70565b5b60006118ce8482850161169f565b91505092915050565b60006118e282611b80565b6118ec8185611b8b565b93506118fc818560208601611bc6565b61190581611d75565b840191505092915050565b600061191b82611b80565b6119258185611b9c565b9350611935818560208601611bc6565b61193e81611d75565b840191505092915050565b6000608083016000830151848203600086015261196682826118d7565b9150506020830151848203602086015261198082826118d7565b9150506040830151848203604086015261199a82826118d7565b915050606083015184820360608601526119b482826118d7565b9150508091505092915050565b600060808301600083015184820360008601526119de82826118d7565b915050602083015184820360208601526119f882826118d7565b91505060408301518482036040860152611a1282826118d7565b91505060608301518482036060860152611a2c82826118d7565b9150508091505092915050565b60006060820190508181036000830152611a538186611910565b90508181036020830152611a678185611910565b90508181036040830152611a7b8184611910565b9050949350505050565b60006080820190508181036000830152611a9f8187611910565b90508181036020830152611ab38186611910565b90508181036040830152611ac78185611910565b90508181036060830152611adb8184611910565b905095945050505050565b60006020820190508181036000830152611b008184611949565b905092915050565b60006020820190508181036000830152611b2281846119c1565b905092915050565b6000611b34611b45565b9050611b408282611c2b565b919050565b6000604051905090565b600067ffffffffffffffff821115611b6a57611b69611d32565b5b611b7382611d75565b9050602081019050919050565b600081519050919050565b600082825260208201905092915050565b600082825260208201905092915050565b6000819050919050565b82818337600083830152505050565b60005b83811015611be4578082015181840152602081019050611bc9565b83811115611bf3576000848401525b50505050565b60006002820490506001821680611c1157607f821691505b60208210811415611c2557611c24611cd4565b5b50919050565b611c3482611d75565b810181811067ffffffffffffffff82111715611c5357611c52611d32565b5b80604052505050565b6000611c6782611bad565b91507fffffffffffffffffffffffffffffffffffffffffffffffffffffffffffffffff821415611c9a57611c99611ca5565b5b600182019050919050565b7f4e487b7100000000000000000000000000000000000000000000000000000000600052601160045260246000fd5b7f4e487b7100000000000000000000000000000000000000000000000000000000600052602260045260246000fd5b7f4e487b7100000000000000000000000000000000000000000000000000000000600052603260045260246000fd5b7f4e487b7100000000000000000000000000000000000000000000000000000000600052604160045260246000fd5b600080fd5b600080fd5b600080fd5b600080fd5b6000601f19601f8301169050919050565b611d8f81611bad565b8114611d9a57600080fd5b5056fea2646970667358221220d05b196095a1028a3f604d6b9542863993aacb562728ad3791c1b93364abc6e464736f6c63430008060033",
  "immutableReferences": {},
  "source": "pragma solidity ^0.8.6;\r\n\r\ncontract SeatContract {\r\n\r\n  uint seatCounter = 0;\r\n  uint userCounter = 0;\r\n  uint ticketCounter = 0;\r\n\r\n  struct Seat {\r\n    string id;\r\n    string row;\r\n    string column;\r\n    string idTicket;\r\n  }\r\n\r\n  struct User {\r\n    string id;\r\n    string name;\r\n    string email;\r\n    string password;\r\n  }\r\n\r\n  struct Ticket {\r\n    string id;\r\n    string idSeat;\r\n    string idUser;\r\n  }\r\n\r\n  constructor () {\r\n    createUsers();\r\n    createSeats();\r\n  }\r\n\r\n  mapping (uint => User) public users;\r\n  mapping (uint => Seat) public seats;\r\n  mapping (uint => Ticket) public tickets;\r\n\r\n  // Create at the beginning\r\n  function createUsers () private {\r\n    createUser(\"01a5c7e2\", \"Andre Lizaran\", \"andrelizaran@gmail.com\", \"HelloWorld123\");\r\n    createUser(\"63274626\", \"Yelitza Magali\", \"yelitzamagali@gmai.com\", \"HelloWorld123\");\r\n    createUser(\"ec073f01\", \"Marco Cortes\", \"marcocortes@gmai.com\", \"HelloWorld123\");\r\n  }\r\n\r\n  function createSeats () private {\r\n    createSeat(\"0ee0ff36\", \"1\", \"A\");\r\n    createSeat(\"3a03f97f\", \"1\", \"B\");\r\n    createSeat(\"3765447a\", \"1\", \"C\");\r\n    createSeat(\"d2456ef7\", \"1\", \"D\");\r\n    createSeat(\"6d16282e\", \"1\", \"E\");\r\n    createSeat(\"25223433\", \"1\", \"F\");\r\n    createSeat(\"5a631ea9\", \"1\", \"G\");\r\n    createSeat(\"2564b5bc\", \"1\", \"H\");\r\n    createSeat(\"6e5b384d\", \"1\", \"I\");\r\n    createSeat(\"7a480974\", \"1\", \"J\");\r\n    createSeat(\"9949da2f\", \"1\", \"K\");\r\n    createSeat(\"574af37c\", \"1\", \"L\");\r\n    createSeat(\"de93ded3\", \"2\", \"A\");\r\n    createSeat(\"53833d66\", \"2\", \"B\");\r\n    createSeat(\"fc66da87\", \"2\", \"C\");\r\n    createSeat(\"58eb95c9\", \"2\", \"D\");\r\n    createSeat(\"0481ccb4\", \"2\", \"E\");\r\n    createSeat(\"e01dcf2d\", \"2\", \"F\");\r\n    createSeat(\"b7aa8774\", \"2\", \"G\");\r\n    createSeat(\"3ea079a0\", \"2\", \"H\");\r\n    createSeat(\"78591cb7\", \"2\", \"I\");\r\n    createSeat(\"48adcf31\", \"2\", \"J\");\r\n    createSeat(\"e97b2f47\", \"2\", \"K\");\r\n    createSeat(\"ebad6966\", \"2\", \"L\");\r\n  }\r\n\r\n  function createUser (string memory _id, string memory _name, string memory _email, string memory _password) public {\r\n    users[userCounter] = User(_id, _name, _email, _password);\r\n    userCounter++;\r\n  }\r\n\r\n  function createSeat (string memory _id, string memory _row, string memory _column) public {\r\n    seats[seatCounter] = Seat(_id, _row, _column, '');\r\n    seatCounter++;\r\n  }\r\n\r\n  function createTicket (string memory _id, string memory _idSeat, string memory _idUser) public {\r\n    tickets[ticketCounter] = Ticket(_id, _idSeat, _idUser);\r\n    ticketCounter++;\r\n  }\r\n\r\n  function signIn (string memory _email, string memory _password) public view returns (User memory) {\r\n    User memory selectedUser = User(\"\", \"\", \"\", \"\");\r\n    for (uint i = 0; i < userCounter; i++) {\r\n      bool compareEmails = stringsEquals(_email, users[i].email);\r\n      bool comparePasswords = stringsEquals(_password, users[i].password);\r\n      if (compareEmails && comparePasswords) {\r\n        selectedUser = users[i];\r\n      }\r\n    }\r\n    return selectedUser;\r\n  }\r\n\r\n  function sellTicket (string memory _idTicket, string memory _idSeat, string memory _idUser) public {\r\n    for (uint i = 0; i < ticketCounter; i++) {\r\n      bool compareId = stringsEquals(_idSeat, seats[i].id);\r\n      if (compareId) { \r\n        Seat memory newSeat = Seat(_idSeat, seats[i].row, seats[i].column, _idTicket);\r\n        seats[i] = newSeat; \r\n      }\r\n    }\r\n    createTicket(_idTicket, _idSeat, _idUser);\r\n  }\r\n\r\n  function getSeat (uint _position) public view returns (Seat memory) {\r\n    return seats[_position];\r\n  }\r\n\r\n  function stringsEquals(string memory s1, string memory s2) private pure returns (bool) {\r\n    bytes memory b1 = bytes(s1);\r\n    bytes memory b2 = bytes(s2);\r\n    uint256 l1 = b1.length;\r\n    if (l1 != b2.length) return false;\r\n    for (uint256 i=0; i<l1; i++) {\r\n        if (b1[i] != b2[i]) return false;\r\n    }\r\n    return true;\r\n  }\r\n\r\n}",
  "sourcePath": "D:\\Personal\\Clean Briefcase\\5. TicketContract\\contracts\\SeatContract.sol",
  "compiler": {
    "name": "solc",
    "version": "0.8.6+commit.11564f7e.Emscripten.clang"
  },
  "schemaVersion": "3.4.11",
  "updatedAt": "2022-12-07T18:11:54.611Z",
  "networkType": "ethereum",
  "devdoc": {
    "kind": "dev",
    "methods": {},
    "version": 1
  },
  "userdoc": {
    "kind": "user",
    "methods": {},
    "version": 1
  }
}