{
  "contractName": "SeatContract",
  "abi": [
    {
      "inputs": [],
      "stateMutability": "nonpayable",
      "type": "constructor"
    },
    {
      "anonymous": false,
      "inputs": [
        {
          "indexed": false,
          "internalType": "uint256",
          "name": "id",
          "type": "uint256"
        },
        {
          "indexed": false,
          "internalType": "string",
          "name": "row",
          "type": "string"
        },
        {
          "indexed": false,
          "internalType": "string",
          "name": "column",
          "type": "string"
        },
        {
          "indexed": false,
          "internalType": "bool",
          "name": "inUse",
          "type": "bool"
        }
      ],
      "name": "SeatCreated",
      "type": "event"
    },
    {
      "inputs": [
        {
          "internalType": "uint256",
          "name": "",
          "type": "uint256"
        }
      ],
      "name": "seats",
      "outputs": [
        {
          "internalType": "uint256",
          "name": "id",
          "type": "uint256"
        },
        {
          "internalType": "string",
          "name": "row",
          "type": "string"
        },
        {
          "internalType": "string",
          "name": "column",
          "type": "string"
        },
        {
          "internalType": "bool",
          "name": "inUse",
          "type": "bool"
        }
      ],
      "stateMutability": "view",
      "type": "function",
      "constant": true
    },
    {
      "inputs": [
        {
          "internalType": "uint256",
          "name": "_id",
          "type": "uint256"
        }
      ],
      "name": "toggleInUse",
      "outputs": [],
      "stateMutability": "nonpayable",
      "type": "function"
    },
    {
      "inputs": [],
      "name": "getFirstSeat",
      "outputs": [
        {
          "components": [
            {
              "internalType": "uint256",
              "name": "id",
              "type": "uint256"
            },
            {
              "internalType": "string",
              "name": "row",
              "type": "string"
            },
            {
              "internalType": "string",
              "name": "column",
              "type": "string"
            },
            {
              "internalType": "bool",
              "name": "inUse",
              "type": "bool"
            }
          ],
          "internalType": "struct SeatContract.Seat",
          "name": "",
          "type": "tuple"
        }
      ],
      "stateMutability": "view",
      "type": "function",
      "constant": true
    }
  ],
  "bytecode": "0x6080604052600080553480156200001557600080fd5b50620000926040518060400160405280600181526020017f31000000000000000000000000000000000000000000000000000000000000008152506040518060400160405280600181526020017f4100000000000000000000000000000000000000000000000000000000000000815250620022fc60201b60201c565b6200010e6040518060400160405280600181526020017f31000000000000000000000000000000000000000000000000000000000000008152506040518060400160405280600181526020017f4200000000000000000000000000000000000000000000000000000000000000815250620022fc60201b60201c565b6200018a6040518060400160405280600181526020017f31000000000000000000000000000000000000000000000000000000000000008152506040518060400160405280600181526020017f4300000000000000000000000000000000000000000000000000000000000000815250620022fc60201b60201c565b620002066040518060400160405280600181526020017f31000000000000000000000000000000000000000000000000000000000000008152506040518060400160405280600181526020017f4400000000000000000000000000000000000000000000000000000000000000815250620022fc60201b60201c565b620002826040518060400160405280600181526020017f31000000000000000000000000000000000000000000000000000000000000008152506040518060400160405280600181526020017f4500000000000000000000000000000000000000000000000000000000000000815250620022fc60201b60201c565b620002fe6040518060400160405280600181526020017f31000000000000000000000000000000000000000000000000000000000000008152506040518060400160405280600181526020017f4600000000000000000000000000000000000000000000000000000000000000815250620022fc60201b60201c565b6200037a6040518060400160405280600181526020017f31000000000000000000000000000000000000000000000000000000000000008152506040518060400160405280600181526020017f4700000000000000000000000000000000000000000000000000000000000000815250620022fc60201b60201c565b620003f66040518060400160405280600181526020017f31000000000000000000000000000000000000000000000000000000000000008152506040518060400160405280600181526020017f4800000000000000000000000000000000000000000000000000000000000000815250620022fc60201b60201c565b620004726040518060400160405280600181526020017f31000000000000000000000000000000000000000000000000000000000000008152506040518060400160405280600181526020017f4900000000000000000000000000000000000000000000000000000000000000815250620022fc60201b60201c565b620004ee6040518060400160405280600181526020017f31000000000000000000000000000000000000000000000000000000000000008152506040518060400160405280600181526020017f4a00000000000000000000000000000000000000000000000000000000000000815250620022fc60201b60201c565b6200056a6040518060400160405280600181526020017f31000000000000000000000000000000000000000000000000000000000000008152506040518060400160405280600181526020017f4b00000000000000000000000000000000000000000000000000000000000000815250620022fc60201b60201c565b620005e66040518060400160405280600181526020017f31000000000000000000000000000000000000000000000000000000000000008152506040518060400160405280600181526020017f4c00000000000000000000000000000000000000000000000000000000000000815250620022fc60201b60201c565b620006626040518060400160405280600181526020017f32000000000000000000000000000000000000000000000000000000000000008152506040518060400160405280600181526020017f4100000000000000000000000000000000000000000000000000000000000000815250620022fc60201b60201c565b620006de6040518060400160405280600181526020017f32000000000000000000000000000000000000000000000000000000000000008152506040518060400160405280600181526020017f4200000000000000000000000000000000000000000000000000000000000000815250620022fc60201b60201c565b6200075a6040518060400160405280600181526020017f32000000000000000000000000000000000000000000000000000000000000008152506040518060400160405280600181526020017f4300000000000000000000000000000000000000000000000000000000000000815250620022fc60201b60201c565b620007d66040518060400160405280600181526020017f32000000000000000000000000000000000000000000000000000000000000008152506040518060400160405280600181526020017f4400000000000000000000000000000000000000000000000000000000000000815250620022fc60201b60201c565b620008526040518060400160405280600181526020017f32000000000000000000000000000000000000000000000000000000000000008152506040518060400160405280600181526020017f4500000000000000000000000000000000000000000000000000000000000000815250620022fc60201b60201c565b620008ce6040518060400160405280600181526020017f32000000000000000000000000000000000000000000000000000000000000008152506040518060400160405280600181526020017f4600000000000000000000000000000000000000000000000000000000000000815250620022fc60201b60201c565b6200094a6040518060400160405280600181526020017f32000000000000000000000000000000000000000000000000000000000000008152506040518060400160405280600181526020017f4700000000000000000000000000000000000000000000000000000000000000815250620022fc60201b60201c565b620009c66040518060400160405280600181526020017f32000000000000000000000000000000000000000000000000000000000000008152506040518060400160405280600181526020017f4800000000000000000000000000000000000000000000000000000000000000815250620022fc60201b60201c565b62000a426040518060400160405280600181526020017f32000000000000000000000000000000000000000000000000000000000000008152506040518060400160405280600181526020017f4900000000000000000000000000000000000000000000000000000000000000815250620022fc60201b60201c565b62000abe6040518060400160405280600181526020017f32000000000000000000000000000000000000000000000000000000000000008152506040518060400160405280600181526020017f4a00000000000000000000000000000000000000000000000000000000000000815250620022fc60201b60201c565b62000b3a6040518060400160405280600181526020017f32000000000000000000000000000000000000000000000000000000000000008152506040518060400160405280600181526020017f4b00000000000000000000000000000000000000000000000000000000000000815250620022fc60201b60201c565b62000bb66040518060400160405280600181526020017f32000000000000000000000000000000000000000000000000000000000000008152506040518060400160405280600181526020017f4c00000000000000000000000000000000000000000000000000000000000000815250620022fc60201b60201c565b62000c326040518060400160405280600181526020017f33000000000000000000000000000000000000000000000000000000000000008152506040518060400160405280600181526020017f4100000000000000000000000000000000000000000000000000000000000000815250620022fc60201b60201c565b62000cae6040518060400160405280600181526020017f33000000000000000000000000000000000000000000000000000000000000008152506040518060400160405280600181526020017f4200000000000000000000000000000000000000000000000000000000000000815250620022fc60201b60201c565b62000d2a6040518060400160405280600181526020017f33000000000000000000000000000000000000000000000000000000000000008152506040518060400160405280600181526020017f4300000000000000000000000000000000000000000000000000000000000000815250620022fc60201b60201c565b62000da66040518060400160405280600181526020017f33000000000000000000000000000000000000000000000000000000000000008152506040518060400160405280600181526020017f4400000000000000000000000000000000000000000000000000000000000000815250620022fc60201b60201c565b62000e226040518060400160405280600181526020017f33000000000000000000000000000000000000000000000000000000000000008152506040518060400160405280600181526020017f4500000000000000000000000000000000000000000000000000000000000000815250620022fc60201b60201c565b62000e9e6040518060400160405280600181526020017f33000000000000000000000000000000000000000000000000000000000000008152506040518060400160405280600181526020017f4600000000000000000000000000000000000000000000000000000000000000815250620022fc60201b60201c565b62000f1a6040518060400160405280600181526020017f33000000000000000000000000000000000000000000000000000000000000008152506040518060400160405280600181526020017f4700000000000000000000000000000000000000000000000000000000000000815250620022fc60201b60201c565b62000f966040518060400160405280600181526020017f33000000000000000000000000000000000000000000000000000000000000008152506040518060400160405280600181526020017f4800000000000000000000000000000000000000000000000000000000000000815250620022fc60201b60201c565b620010126040518060400160405280600181526020017f33000000000000000000000000000000000000000000000000000000000000008152506040518060400160405280600181526020017f4900000000000000000000000000000000000000000000000000000000000000815250620022fc60201b60201c565b6200108e6040518060400160405280600181526020017f33000000000000000000000000000000000000000000000000000000000000008152506040518060400160405280600181526020017f4a00000000000000000000000000000000000000000000000000000000000000815250620022fc60201b60201c565b6200110a6040518060400160405280600181526020017f33000000000000000000000000000000000000000000000000000000000000008152506040518060400160405280600181526020017f4b00000000000000000000000000000000000000000000000000000000000000815250620022fc60201b60201c565b620011866040518060400160405280600181526020017f33000000000000000000000000000000000000000000000000000000000000008152506040518060400160405280600181526020017f4c00000000000000000000000000000000000000000000000000000000000000815250620022fc60201b60201c565b620012026040518060400160405280600181526020017f34000000000000000000000000000000000000000000000000000000000000008152506040518060400160405280600181526020017f4100000000000000000000000000000000000000000000000000000000000000815250620022fc60201b60201c565b6200127e6040518060400160405280600181526020017f34000000000000000000000000000000000000000000000000000000000000008152506040518060400160405280600181526020017f4200000000000000000000000000000000000000000000000000000000000000815250620022fc60201b60201c565b620012fa6040518060400160405280600181526020017f34000000000000000000000000000000000000000000000000000000000000008152506040518060400160405280600181526020017f4300000000000000000000000000000000000000000000000000000000000000815250620022fc60201b60201c565b620013766040518060400160405280600181526020017f34000000000000000000000000000000000000000000000000000000000000008152506040518060400160405280600181526020017f4400000000000000000000000000000000000000000000000000000000000000815250620022fc60201b60201c565b620013f26040518060400160405280600181526020017f34000000000000000000000000000000000000000000000000000000000000008152506040518060400160405280600181526020017f4500000000000000000000000000000000000000000000000000000000000000815250620022fc60201b60201c565b6200146e6040518060400160405280600181526020017f34000000000000000000000000000000000000000000000000000000000000008152506040518060400160405280600181526020017f4600000000000000000000000000000000000000000000000000000000000000815250620022fc60201b60201c565b620014ea6040518060400160405280600181526020017f34000000000000000000000000000000000000000000000000000000000000008152506040518060400160405280600181526020017f4700000000000000000000000000000000000000000000000000000000000000815250620022fc60201b60201c565b620015666040518060400160405280600181526020017f34000000000000000000000000000000000000000000000000000000000000008152506040518060400160405280600181526020017f4800000000000000000000000000000000000000000000000000000000000000815250620022fc60201b60201c565b620015e26040518060400160405280600181526020017f34000000000000000000000000000000000000000000000000000000000000008152506040518060400160405280600181526020017f4900000000000000000000000000000000000000000000000000000000000000815250620022fc60201b60201c565b6200165e6040518060400160405280600181526020017f34000000000000000000000000000000000000000000000000000000000000008152506040518060400160405280600181526020017f4a00000000000000000000000000000000000000000000000000000000000000815250620022fc60201b60201c565b620016da6040518060400160405280600181526020017f34000000000000000000000000000000000000000000000000000000000000008152506040518060400160405280600181526020017f4b00000000000000000000000000000000000000000000000000000000000000815250620022fc60201b60201c565b620017566040518060400160405280600181526020017f34000000000000000000000000000000000000000000000000000000000000008152506040518060400160405280600181526020017f4c00000000000000000000000000000000000000000000000000000000000000815250620022fc60201b60201c565b620017d26040518060400160405280600181526020017f35000000000000000000000000000000000000000000000000000000000000008152506040518060400160405280600181526020017f4100000000000000000000000000000000000000000000000000000000000000815250620022fc60201b60201c565b6200184e6040518060400160405280600181526020017f35000000000000000000000000000000000000000000000000000000000000008152506040518060400160405280600181526020017f4200000000000000000000000000000000000000000000000000000000000000815250620022fc60201b60201c565b620018ca6040518060400160405280600181526020017f35000000000000000000000000000000000000000000000000000000000000008152506040518060400160405280600181526020017f4300000000000000000000000000000000000000000000000000000000000000815250620022fc60201b60201c565b620019466040518060400160405280600181526020017f35000000000000000000000000000000000000000000000000000000000000008152506040518060400160405280600181526020017f4400000000000000000000000000000000000000000000000000000000000000815250620022fc60201b60201c565b620019c26040518060400160405280600181526020017f35000000000000000000000000000000000000000000000000000000000000008152506040518060400160405280600181526020017f4500000000000000000000000000000000000000000000000000000000000000815250620022fc60201b60201c565b62001a3e6040518060400160405280600181526020017f35000000000000000000000000000000000000000000000000000000000000008152506040518060400160405280600181526020017f4600000000000000000000000000000000000000000000000000000000000000815250620022fc60201b60201c565b62001aba6040518060400160405280600181526020017f35000000000000000000000000000000000000000000000000000000000000008152506040518060400160405280600181526020017f4700000000000000000000000000000000000000000000000000000000000000815250620022fc60201b60201c565b62001b366040518060400160405280600181526020017f35000000000000000000000000000000000000000000000000000000000000008152506040518060400160405280600181526020017f4800000000000000000000000000000000000000000000000000000000000000815250620022fc60201b60201c565b62001bb26040518060400160405280600181526020017f35000000000000000000000000000000000000000000000000000000000000008152506040518060400160405280600181526020017f4900000000000000000000000000000000000000000000000000000000000000815250620022fc60201b60201c565b62001c2e6040518060400160405280600181526020017f35000000000000000000000000000000000000000000000000000000000000008152506040518060400160405280600181526020017f4a00000000000000000000000000000000000000000000000000000000000000815250620022fc60201b60201c565b62001caa6040518060400160405280600181526020017f35000000000000000000000000000000000000000000000000000000000000008152506040518060400160405280600181526020017f4b00000000000000000000000000000000000000000000000000000000000000815250620022fc60201b60201c565b62001d266040518060400160405280600181526020017f35000000000000000000000000000000000000000000000000000000000000008152506040518060400160405280600181526020017f4c00000000000000000000000000000000000000000000000000000000000000815250620022fc60201b60201c565b62001da26040518060400160405280600181526020017f36000000000000000000000000000000000000000000000000000000000000008152506040518060400160405280600181526020017f4100000000000000000000000000000000000000000000000000000000000000815250620022fc60201b60201c565b62001e1e6040518060400160405280600181526020017f36000000000000000000000000000000000000000000000000000000000000008152506040518060400160405280600181526020017f4200000000000000000000000000000000000000000000000000000000000000815250620022fc60201b60201c565b62001e9a6040518060400160405280600181526020017f36000000000000000000000000000000000000000000000000000000000000008152506040518060400160405280600181526020017f4300000000000000000000000000000000000000000000000000000000000000815250620022fc60201b60201c565b62001f166040518060400160405280600181526020017f36000000000000000000000000000000000000000000000000000000000000008152506040518060400160405280600181526020017f4400000000000000000000000000000000000000000000000000000000000000815250620022fc60201b60201c565b62001f926040518060400160405280600181526020017f36000000000000000000000000000000000000000000000000000000000000008152506040518060400160405280600181526020017f4500000000000000000000000000000000000000000000000000000000000000815250620022fc60201b60201c565b6200200e6040518060400160405280600181526020017f36000000000000000000000000000000000000000000000000000000000000008152506040518060400160405280600181526020017f4600000000000000000000000000000000000000000000000000000000000000815250620022fc60201b60201c565b6200208a6040518060400160405280600181526020017f36000000000000000000000000000000000000000000000000000000000000008152506040518060400160405280600181526020017f4700000000000000000000000000000000000000000000000000000000000000815250620022fc60201b60201c565b620021066040518060400160405280600181526020017f36000000000000000000000000000000000000000000000000000000000000008152506040518060400160405280600181526020017f4800000000000000000000000000000000000000000000000000000000000000815250620022fc60201b60201c565b620021826040518060400160405280600181526020017f36000000000000000000000000000000000000000000000000000000000000008152506040518060400160405280600181526020017f4900000000000000000000000000000000000000000000000000000000000000815250620022fc60201b60201c565b620021fe6040518060400160405280600181526020017f36000000000000000000000000000000000000000000000000000000000000008152506040518060400160405280600181526020017f4a00000000000000000000000000000000000000000000000000000000000000815250620022fc60201b60201c565b6200227a6040518060400160405280600181526020017f36000000000000000000000000000000000000000000000000000000000000008152506040518060400160405280600181526020017f4b00000000000000000000000000000000000000000000000000000000000000815250620022fc60201b60201c565b620022f66040518060400160405280600181526020017f36000000000000000000000000000000000000000000000000000000000000008152506040518060400160405280600181526020017f4c00000000000000000000000000000000000000000000000000000000000000815250620022fc60201b60201c565b620026c9565b604051806080016040528060005481526020018381526020018281526020016000151581525060016000805481526020019081526020016000206000820151816000015560208201518160010190805190602001906200235e92919062002400565b5060408201518160020190805190602001906200237d92919062002400565b5060608201518160030160006101000a81548160ff021916908315150217905550905050600080815480929190620023b5906200260c565b91905055507f0e528dab4abb51b203131f4c4160fb6a9a7abde0d8b399095df7814e6d83d22060005483836001604051620023f4949392919062002513565b60405180910390a15050565b8280546200240e90620025d6565b90600052602060002090601f0160209004810192826200243257600085556200247e565b82601f106200244d57805160ff19168380011785556200247e565b828001600101855582156200247e579182015b828111156200247d57825182559160200191906001019062002460565b5b5090506200248d919062002491565b5090565b5b80821115620024ac57600081600090555060010162002492565b5090565b620024bb816200258a565b82525050565b6000620024ce826200256e565b620024da818562002579565b9350620024ec818560208601620025a0565b620024f781620026b8565b840191505092915050565b6200250d8162002596565b82525050565b60006080820190506200252a600083018762002502565b81810360208301526200253e8186620024c1565b90508181036040830152620025548185620024c1565b9050620025656060830184620024b0565b95945050505050565b600081519050919050565b600082825260208201905092915050565b60008115159050919050565b6000819050919050565b60005b83811015620025c0578082015181840152602081019050620025a3565b83811115620025d0576000848401525b50505050565b60006002820490506001821680620025ef57607f821691505b6020821081141562002606576200260562002689565b5b50919050565b6000620026198262002596565b91507fffffffffffffffffffffffffffffffffffffffffffffffffffffffffffffffff8214156200264f576200264e6200265a565b5b600182019050919050565b7f4e487b7100000000000000000000000000000000000000000000000000000000600052601160045260246000fd5b7f4e487b7100000000000000000000000000000000000000000000000000000000600052602260045260246000fd5b6000601f19601f8301169050919050565b61094980620026d96000396000f3fe608060405234801561001057600080fd5b50600436106100415760003560e01c806301b1eaba146100465780633b33c70214610062578063f572da2514610095575b600080fd5b610060600480360381019061005b9190610655565b6100b3565b005b61007c60048036038101906100779190610655565b6102b2565b60405161008c94939291906107bc565b60405180910390f35b61009d6103ff565b6040516100aa919061079a565b60405180910390f35b600060016000838152602001908152602001600020604051806080016040529081600082015481526020016001820180546100ed90610885565b80601f016020809104026020016040519081016040528092919081815260200182805461011990610885565b80156101665780601f1061013b57610100808354040283529160200191610166565b820191906000526020600020905b81548152906001019060200180831161014957829003601f168201915b5050505050815260200160028201805461017f90610885565b80601f01602080910402602001604051908101604052809291908181526020018280546101ab90610885565b80156101f85780601f106101cd576101008083540402835291602001916101f8565b820191906000526020600020905b8154815290600101906020018083116101db57829003601f168201915b505050505081526020016003820160009054906101000a900460ff1615151515815250509050806060015115816060019015159081151581525050806001600084815260200190815260200160002060008201518160000155602082015181600101908051906020019061026d929190610573565b50604082015181600201908051906020019061028a929190610573565b5060608201518160030160006101000a81548160ff0219169083151502179055509050505050565b60016020528060005260406000206000915090508060000154908060010180546102db90610885565b80601f016020809104026020016040519081016040528092919081815260200182805461030790610885565b80156103545780601f1061032957610100808354040283529160200191610354565b820191906000526020600020905b81548152906001019060200180831161033757829003601f168201915b50505050509080600201805461036990610885565b80601f016020809104026020016040519081016040528092919081815260200182805461039590610885565b80156103e25780601f106103b7576101008083540402835291602001916103e2565b820191906000526020600020905b8154815290600101906020018083116103c557829003601f168201915b5050505050908060030160009054906101000a900460ff16905084565b6104076105f9565b600160008081526020019081526020016000206040518060800160405290816000820154815260200160018201805461043f90610885565b80601f016020809104026020016040519081016040528092919081815260200182805461046b90610885565b80156104b85780601f1061048d576101008083540402835291602001916104b8565b820191906000526020600020905b81548152906001019060200180831161049b57829003601f168201915b505050505081526020016002820180546104d190610885565b80601f01602080910402602001604051908101604052809291908181526020018280546104fd90610885565b801561054a5780601f1061051f5761010080835404028352916020019161054a565b820191906000526020600020905b81548152906001019060200180831161052d57829003601f168201915b505050505081526020016003820160009054906101000a900460ff161515151581525050905090565b82805461057f90610885565b90600052602060002090601f0160209004810192826105a157600085556105e8565b82601f106105ba57805160ff19168380011785556105e8565b828001600101855582156105e8579182015b828111156105e75782518255916020019190600101906105cc565b5b5090506105f59190610623565b5090565b60405180608001604052806000815260200160608152602001606081526020016000151581525090565b5b8082111561063c576000816000905550600101610624565b5090565b60008135905061064f816108fc565b92915050565b60006020828403121561066b5761066a6108e6565b5b600061067984828501610640565b91505092915050565b61068b8161083c565b82525050565b61069a8161083c565b82525050565b60006106ab8261080f565b6106b5818561081a565b93506106c5818560208601610852565b6106ce816108eb565b840191505092915050565b60006106e48261080f565b6106ee818561082b565b93506106fe818560208601610852565b610707816108eb565b840191505092915050565b600060808301600083015161072a600086018261077c565b506020830151848203602086015261074282826106a0565b9150506040830151848203604086015261075c82826106a0565b91505060608301516107716060860182610682565b508091505092915050565b61078581610848565b82525050565b61079481610848565b82525050565b600060208201905081810360008301526107b48184610712565b905092915050565b60006080820190506107d1600083018761078b565b81810360208301526107e381866106d9565b905081810360408301526107f781856106d9565b90506108066060830184610691565b95945050505050565b600081519050919050565b600082825260208201905092915050565b600082825260208201905092915050565b60008115159050919050565b6000819050919050565b60005b83811015610870578082015181840152602081019050610855565b8381111561087f576000848401525b50505050565b6000600282049050600182168061089d57607f821691505b602082108114156108b1576108b06108b7565b5b50919050565b7f4e487b7100000000000000000000000000000000000000000000000000000000600052602260045260246000fd5b600080fd5b6000601f19601f8301169050919050565b61090581610848565b811461091057600080fd5b5056fea2646970667358221220e5ecbdf2e806ed8a4bac710df122923717b53c6306cf3c56696ad753b3af931d64736f6c63430008060033",
  "immutableReferences": {},
  "source": "pragma solidity ^0.8.6;\r\n\r\ncontract SeatContract {\r\n\r\n  uint seatCounter = 0;\r\n\r\n  event SeatCreated (\r\n    uint id,\r\n    string row,\r\n    string column,\r\n    bool inUse\r\n  );\r\n\r\n  struct Seat {\r\n    uint id;\r\n    string row;\r\n    string column;\r\n    bool inUse;\r\n  }\r\n\r\n  constructor () {\r\n    createSeat(\"1\", \"A\");\r\n    createSeat(\"1\", \"B\");\r\n    createSeat(\"1\", \"C\");\r\n    createSeat(\"1\", \"D\");\r\n    createSeat(\"1\", \"E\");\r\n    createSeat(\"1\", \"F\");\r\n    createSeat(\"1\", \"G\");\r\n    createSeat(\"1\", \"H\");\r\n    createSeat(\"1\", \"I\");\r\n    createSeat(\"1\", \"J\");\r\n    createSeat(\"1\", \"K\");\r\n    createSeat(\"1\", \"L\");\r\n    \r\n    createSeat(\"2\", \"A\");\r\n    createSeat(\"2\", \"B\");\r\n    createSeat(\"2\", \"C\");\r\n    createSeat(\"2\", \"D\");\r\n    createSeat(\"2\", \"E\");\r\n    createSeat(\"2\", \"F\");\r\n    createSeat(\"2\", \"G\");\r\n    createSeat(\"2\", \"H\");\r\n    createSeat(\"2\", \"I\");\r\n    createSeat(\"2\", \"J\");\r\n    createSeat(\"2\", \"K\");\r\n    createSeat(\"2\", \"L\");\r\n    \r\n    createSeat(\"3\", \"A\");\r\n    createSeat(\"3\", \"B\");\r\n    createSeat(\"3\", \"C\");\r\n    createSeat(\"3\", \"D\");\r\n    createSeat(\"3\", \"E\");\r\n    createSeat(\"3\", \"F\");\r\n    createSeat(\"3\", \"G\");\r\n    createSeat(\"3\", \"H\");\r\n    createSeat(\"3\", \"I\");\r\n    createSeat(\"3\", \"J\");\r\n    createSeat(\"3\", \"K\");\r\n    createSeat(\"3\", \"L\");\r\n    \r\n    createSeat(\"4\", \"A\");\r\n    createSeat(\"4\", \"B\");\r\n    createSeat(\"4\", \"C\");\r\n    createSeat(\"4\", \"D\");\r\n    createSeat(\"4\", \"E\");\r\n    createSeat(\"4\", \"F\");\r\n    createSeat(\"4\", \"G\");\r\n    createSeat(\"4\", \"H\");\r\n    createSeat(\"4\", \"I\");\r\n    createSeat(\"4\", \"J\");\r\n    createSeat(\"4\", \"K\");\r\n    createSeat(\"4\", \"L\");\r\n    \r\n    createSeat(\"5\", \"A\");\r\n    createSeat(\"5\", \"B\");\r\n    createSeat(\"5\", \"C\");\r\n    createSeat(\"5\", \"D\");\r\n    createSeat(\"5\", \"E\");\r\n    createSeat(\"5\", \"F\");\r\n    createSeat(\"5\", \"G\");\r\n    createSeat(\"5\", \"H\");\r\n    createSeat(\"5\", \"I\");\r\n    createSeat(\"5\", \"J\");\r\n    createSeat(\"5\", \"K\");\r\n    createSeat(\"5\", \"L\");\r\n    \r\n    createSeat(\"6\", \"A\");\r\n    createSeat(\"6\", \"B\");\r\n    createSeat(\"6\", \"C\");\r\n    createSeat(\"6\", \"D\");\r\n    createSeat(\"6\", \"E\");\r\n    createSeat(\"6\", \"F\");\r\n    createSeat(\"6\", \"G\");\r\n    createSeat(\"6\", \"H\");\r\n    createSeat(\"6\", \"I\");\r\n    createSeat(\"6\", \"J\");\r\n    createSeat(\"6\", \"K\");\r\n    createSeat(\"6\", \"L\");\r\n  }\r\n\r\n  mapping (uint => Seat) public seats;\r\n\r\n  function createSeat (string memory _row, string memory _column) private {\r\n    seats[seatCounter] = Seat(seatCounter, _row, _column, false);\r\n    seatCounter++;\r\n    emit SeatCreated(seatCounter, _row, _column, true);\r\n  }\r\n\r\n  function toggleInUse (uint _id) public {\r\n    Seat memory _seat = seats[_id];\r\n    _seat.inUse = !_seat.inUse;\r\n    seats[_id] = _seat;\r\n  }\r\n\r\n  function getFirstSeat () public view returns (Seat memory) {\r\n    return seats[0];\r\n  }\r\n\r\n\r\n}",
  "sourcePath": "D:\\Personal\\Clean Briefcase\\5. TicketContract\\contracts\\SeatContract.sol",
  "compiler": {
    "name": "solc",
    "version": "0.8.6+commit.11564f7e.Emscripten.clang"
  },
  "schemaVersion": "3.4.11",
  "updatedAt": "2022-12-04T03:55:59.278Z",
  "networkType": "ethereum",
  "devdoc": {
    "kind": "dev",
    "methods": {},
    "version": 1
  },
  "userdoc": {
    "kind": "user",
    "methods": {},
    "version": 1
  }
}